{
  "address": "0x09D2213cc596192c97A289957c4863C9992683ed",
  "abi": [
    {
      "constant": true,
      "inputs": [],
      "name": "marketInfo",
      "outputs": [
        {
          "name": "startTime",
          "type": "uint256"
        },
        {
          "name": "endTime",
          "type": "uint256"
        },
        {
          "name": "claimableTime",
          "type": "uint256"
        },
        {
          "name": "totalTokens",
          "type": "uint256"
        }
      ],
      "payable": false,
      "stateMutability": "view",
      "type": "function"
    },
    {
      "constant": true,
      "inputs": [
        {
          "name": "",
          "type": "address"
        }
      ],
      "name": "userInfo",
      "outputs": [
        {
          "name": "commitment",
          "type": "uint256"
        },
        {
          "name": "claimed",
          "type": "uint256"
        }
      ],
      "payable": false,
      "stateMutability": "view",
      "type": "function"
    },
    {
      "constant": false,
      "inputs": [
        {
          "name": "funder",
          "type": "address"
        },
        {
          "name": "token",
          "type": "address"
        },
        {
          "name": "totalTokens",
          "type": "uint256"
        },
        {
          "name": "startTime",
          "type": "uint256"
        },
        {
          "name": "endTime",
          "type": "uint256"
        },
        {
          "name": "claimableTime",
          "type": "uint256"
        },
        {
          "name": "minimumCommitmentAmount",
          "type": "uint256"
        },
        {
          "name": "maximumCommitmentAmount",
          "type": "uint256"
        },
        {
          "name": "wallet_",
          "type": "address"
        }
      ],
      "name": "initAuction",
      "outputs": [],
      "payable": false,
      "stateMutability": "nonpayable",
      "type": "function"
    },
    {
      "constant": true,
      "inputs": [],
      "name": "auctionSuccessful",
      "outputs": [
        {
          "name": "",
          "type": "bool"
        }
      ],
      "payable": false,
      "stateMutability": "view",
      "type": "function"
    },
    {
      "constant": false,
      "inputs": [
        {
          "name": "beneficiary",
          "type": "address"
        }
      ],
      "name": "withdrawTokens",
      "outputs": [],
      "payable": false,
      "stateMutability": "nonpayable",
      "type": "function"
    },
    {
      "constant": false,
      "inputs": [
        {
          "name": "beneficiary",
          "type": "address"
        }
      ],
      "name": "commitKLAY",
      "outputs": [],
      "payable": true,
      "stateMutability": "payable",
      "type": "function"
    },
    {
      "constant": false,
      "inputs": [],
      "name": "finalize",
      "outputs": [],
      "payable": false,
      "stateMutability": "nonpayable",
      "type": "function"
    },
    {
      "constant": true,
      "inputs": [
        {
          "name": "user_",
          "type": "address"
        }
      ],
      "name": "tokensClaimable",
      "outputs": [
        {
          "name": "claimerCommitment",
          "type": "uint256"
        }
      ],
      "payable": false,
      "stateMutability": "view",
      "type": "function"
    },
    {
      "constant": false,
      "inputs": [],
      "name": "emergencyCancelAuction",
      "outputs": [],
      "payable": false,
      "stateMutability": "nonpayable",
      "type": "function"
    },
    {
      "constant": true,
      "inputs": [],
      "name": "wallet",
      "outputs": [
        {
          "name": "",
          "type": "address"
        }
      ],
      "payable": false,
      "stateMutability": "view",
      "type": "function"
    },
    {
      "constant": false,
      "inputs": [
        {
          "name": "minimumCommitmentAmount",
          "type": "uint256"
        }
      ],
      "name": "setAuctionMinPrice",
      "outputs": [],
      "payable": false,
      "stateMutability": "nonpayable",
      "type": "function"
    },
    {
      "constant": false,
      "inputs": [
        {
          "name": "startTime",
          "type": "uint256"
        },
        {
          "name": "endTime",
          "type": "uint256"
        }
      ],
      "name": "setAuctionTime",
      "outputs": [],
      "payable": false,
      "stateMutability": "nonpayable",
      "type": "function"
    },
    {
      "constant": false,
      "inputs": [],
      "name": "renounceOwnership",
      "outputs": [],
      "payable": false,
      "stateMutability": "nonpayable",
      "type": "function"
    },
    {
      "constant": false,
      "inputs": [
        {
          "name": "claimableTime",
          "type": "uint256"
        }
      ],
      "name": "setClaimableTime",
      "outputs": [],
      "payable": false,
      "stateMutability": "nonpayable",
      "type": "function"
    },
    {
      "constant": true,
      "inputs": [],
      "name": "tokenPrice",
      "outputs": [
        {
          "name": "",
          "type": "uint256"
        }
      ],
      "payable": false,
      "stateMutability": "view",
      "type": "function"
    },
    {
      "constant": true,
      "inputs": [],
      "name": "auctionEnded",
      "outputs": [
        {
          "name": "",
          "type": "bool"
        }
      ],
      "payable": false,
      "stateMutability": "view",
      "type": "function"
    },
    {
      "constant": false,
      "inputs": [],
      "name": "withdrawTokens",
      "outputs": [],
      "payable": false,
      "stateMutability": "nonpayable",
      "type": "function"
    },
    {
      "constant": true,
      "inputs": [],
      "name": "owner",
      "outputs": [
        {
          "name": "",
          "type": "address"
        }
      ],
      "payable": false,
      "stateMutability": "view",
      "type": "function"
    },
    {
      "constant": false,
      "inputs": [
        {
          "name": "endTime",
          "type": "uint256"
        }
      ],
      "name": "resumeAuction",
      "outputs": [],
      "payable": false,
      "stateMutability": "nonpayable",
      "type": "function"
    },
    {
      "constant": false,
      "inputs": [],
      "name": "cancelAuction",
      "outputs": [],
      "payable": false,
      "stateMutability": "nonpayable",
      "type": "function"
    },
    {
      "constant": true,
      "inputs": [],
      "name": "auctionToken",
      "outputs": [
        {
          "name": "",
          "type": "address"
        }
      ],
      "payable": false,
      "stateMutability": "view",
      "type": "function"
    },
    {
      "constant": false,
      "inputs": [
        {
          "name": "wallet_",
          "type": "address"
        }
      ],
      "name": "setAuctionWallet",
      "outputs": [],
      "payable": false,
      "stateMutability": "nonpayable",
      "type": "function"
    },
    {
      "constant": false,
      "inputs": [
        {
          "name": "maximumCommitmentAmount",
          "type": "uint256"
        }
      ],
      "name": "setAuctionMaxPrice",
      "outputs": [],
      "payable": false,
      "stateMutability": "nonpayable",
      "type": "function"
    },
    {
      "constant": true,
      "inputs": [
        {
          "name": "totalAmount",
          "type": "uint256"
        }
      ],
      "name": "tokensVested",
      "outputs": [
        {
          "name": "",
          "type": "uint256"
        }
      ],
      "payable": false,
      "stateMutability": "view",
      "type": "function"
    },
    {
      "constant": true,
      "inputs": [],
      "name": "finalized",
      "outputs": [
        {
          "name": "",
          "type": "bool"
        }
      ],
      "payable": false,
      "stateMutability": "view",
      "type": "function"
    },
    {
      "constant": false,
      "inputs": [],
      "name": "pauseAuction",
      "outputs": [],
      "payable": false,
      "stateMutability": "nonpayable",
      "type": "function"
    },
    {
      "constant": true,
      "inputs": [],
      "name": "marketStatus",
      "outputs": [
        {
          "name": "commitmentsTotal",
          "type": "uint256"
        },
        {
          "name": "minimumCommitmentAmount",
          "type": "uint256"
        },
        {
          "name": "maximumCommitmentAmount",
          "type": "uint256"
        },
        {
          "name": "finalized",
          "type": "bool"
        },
        {
          "name": "emergencyCanceled",
          "type": "bool"
        },
        {
          "name": "paused",
          "type": "bool"
        }
      ],
      "payable": false,
      "stateMutability": "view",
      "type": "function"
    },
    {
      "constant": false,
      "inputs": [
        {
          "name": "newOwner",
          "type": "address"
        }
      ],
      "name": "transferOwnership",
      "outputs": [],
      "payable": false,
      "stateMutability": "nonpayable",
      "type": "function"
    },
    {
      "anonymous": false,
      "inputs": [
        {
          "indexed": false,
          "name": "startTime",
          "type": "uint256"
        },
        {
          "indexed": false,
          "name": "endTime",
          "type": "uint256"
        }
      ],
      "name": "AuctionTimeUpdated",
      "type": "event"
    },
    {
      "anonymous": false,
      "inputs": [
        {
          "indexed": false,
          "name": "minimumCommitmentAmount",
          "type": "uint256"
        }
      ],
      "name": "AuctionMinimumPriceUpdated",
      "type": "event"
    },
    {
      "anonymous": false,
      "inputs": [
        {
          "indexed": false,
          "name": "maximumCommitmentAmount",
          "type": "uint256"
        }
      ],
      "name": "AuctionMaximumPriceUpdated",
      "type": "event"
    },
    {
      "anonymous": false,
      "inputs": [
        {
          "indexed": false,
          "name": "wallet",
          "type": "address"
        }
      ],
      "name": "AuctionWalletUpdated",
      "type": "event"
    },
    {
      "anonymous": false,
      "inputs": [
        {
          "indexed": false,
          "name": "addr",
          "type": "address"
        },
        {
          "indexed": false,
          "name": "commitment",
          "type": "uint256"
        }
      ],
      "name": "AddedCommitment",
      "type": "event"
    },
    {
      "anonymous": false,
      "inputs": [],
      "name": "AuctionFinalized",
      "type": "event"
    },
    {
      "anonymous": false,
      "inputs": [],
      "name": "AuctionCancelled",
      "type": "event"
    },
    {
      "anonymous": false,
      "inputs": [],
      "name": "AuctionEmergencyCancelled",
      "type": "event"
    },
    {
      "anonymous": false,
      "inputs": [],
      "name": "AuctionPaused",
      "type": "event"
    },
    {
      "anonymous": false,
      "inputs": [
        {
          "indexed": false,
          "name": "endTime",
          "type": "uint256"
        }
      ],
      "name": "AuctionResume",
      "type": "event"
    },
    {
      "anonymous": false,
      "inputs": [
        {
          "indexed": false,
          "name": "before_",
          "type": "uint256"
        },
        {
          "indexed": false,
          "name": "after_",
          "type": "uint256"
        }
      ],
      "name": "AuctionClaimableTimeChanged",
      "type": "event"
    },
    {
      "anonymous": false,
      "inputs": [
        {
          "indexed": true,
          "name": "previousOwner",
          "type": "address"
        },
        {
          "indexed": true,
          "name": "newOwner",
          "type": "address"
        }
      ],
      "name": "OwnershipTransferred",
      "type": "event"
    }
  ],
  "transactionHash": "0x7bbc6c80fe784dd3a25a0dbdefc13b3988c997e2ba41673722927bcd92021a2a",
  "args": [],
  "solcInputHash": "361661ccd7e0f10c6c6321a0fe32ce9d",
  "bytecode": "0x6080604081905260008054600160ff1990911617610100600160a81b03191661010033908102919091178255918291907f8be0079c531659141344cd1fd0a4f28419497f9722a3daafe3b4186f6b6457e0908290a350612dfb806100646000396000f3fe6080604052600436106101b75760003560e01c80637ff9b596116100ec5780639a87222c1161008a578063b3f05b9711610064578063b3f05b971461047b578063b9ae736414610490578063e0e081d7146104a5578063f2fde38b146104cc576101b7565b80639a87222c1461041b5780639f6097571461043b578063aa76ee671461045b576101b7565b80638da5cb5b116100c65780638da5cb5b146103bc5780638edcfc15146103d15780638fa8b790146103f157806399fdb32014610406576101b7565b80637ff9b5961461037d57806386433374146103925780638d8f2adb146103a7576101b7565b80634dc80e151161015957806367ce69411161013357806367ce6941146103085780636ae260c114610328578063715018a6146103485780637da209921461035d576101b7565b80634dc80e15146102a45780634efe102b146102d1578063521eb273146102e6576101b7565b806336d0054b1161019557806336d0054b1461023a57806349df728c1461025c5780634a0e1d571461027c5780634bb278f31461028f576101b7565b8063031bee00146101bc5780631959a002146101ea5780633355018114610218575b600080fd5b3480156101c857600080fd5b506101d16104ec565b6040516101e19493929190612d1a565b60405180910390f35b3480156101f657600080fd5b5061020a610205366004611b8d565b6104fb565b6040516101e1929190612cb2565b34801561022457600080fd5b50610238610233366004611bab565b610514565b005b34801561024657600080fd5b5061024f61071d565b6040516101e19190612a06565b34801561026857600080fd5b50610238610277366004611b8d565b61073a565b61023861028a366004611b8d565b6108ce565b34801561029b57600080fd5b506102386109aa565b3480156102b057600080fd5b506102c46102bf366004611b8d565b610b18565b6040516101e19190612ca4565b3480156102dd57600080fd5b50610238610c38565b3480156102f257600080fd5b506102fb610d26565b6040516101e191906129a7565b34801561031457600080fd5b50610238610323366004611c8d565b610d35565b34801561033457600080fd5b50610238610343366004611cc9565b610dee565b34801561035457600080fd5b50610238610f42565b34801561036957600080fd5b50610238610378366004611c8d565b610fd0565b34801561038957600080fd5b506102c46110d3565b34801561039e57600080fd5b5061024f611104565b3480156103b357600080fd5b5061023861110c565b3480156103c857600080fd5b506102fb611117565b3480156103dd57600080fd5b506102386103ec366004611c8d565b61112b565b3480156103fd57600080fd5b50610238611253565b34801561041257600080fd5b506102fb611359565b34801561042757600080fd5b50610238610436366004611b8d565b611368565b34801561044757600080fd5b50610238610456366004611c8d565b61141b565b34801561046757600080fd5b506102c4610476366004611c8d565b6114c9565b34801561048757600080fd5b5061024f611539565b34801561049c57600080fd5b50610238611542565b3480156104b157600080fd5b506104ba611633565b6040516101e196959493929190612cc0565b3480156104d857600080fd5b506102386104e7366004611b8d565b611658565b60015460025460035460045484565b6009602052600090815260409020805460019091015482565b3361051d611117565b6001600160a01b03161461054f57604051600160e51b62461bcd02815260040161054690612b74565b60405180910390fd5b600b54600160a01b900460ff161561057c57604051600160e51b62461bcd02815260040161054690612aa4565b6402540be40084106105a357604051600160e51b62461bcd02815260040161054690612a84565b428610156105c657604051600160e51b62461bcd02815260040161054690612ac4565b8585116105e857604051600160e51b62461bcd02815260040161054690612b04565b84841161060a57604051600160e51b62461bcd02815260040161054690612c44565b6000871161062d57604051600160e51b62461bcd02815260040161054690612c04565b6001600160a01b03811661065657604051600160e51b62461bcd02815260040161054690612be4565b81831061067857604051600160e51b62461bcd02815260040161054690612a24565b600b8054600685905560078490556001889055600287905560038690556004899055600a80546001600160a01b03808d1673ffffffffffffffffffffffffffffffffffffffff1992831617928390558581167fffffffffffffffffffffff00ffffffffffffffffffffffffffffffffffffffff909416600160a01b17919091169290921790925561071291168a308a63ffffffff61172616565b505050505050505050565b60065460055460009111801590610735575060055415155b905090565b60005460ff1661075f57604051600160e51b62461bcd02815260040161054690612c54565b6000805460ff191681556001600160a01b038216815260096020526040902061078661071d565b801561079a5750600854610100900460ff16155b156108555760085460ff166107c457604051600160e51b62461bcd02815260040161054690612a44565b60035442116107e857604051600160e51b62461bcd02815260040161054690612bc4565b60006107f383610b18565b90506000811161081857604051600160e51b62461bcd02815260040161054690612ae4565b600182015461082d908263ffffffff6117cd16565b6001830155600a5461084f906001600160a01b0316848363ffffffff6117f916565b506108bd565b60025442118061086c5750600854610100900460ff165b61088b57604051600160e51b62461bcd02815260040161054690612a94565b8054806108ad57604051600160e51b62461bcd02815260040161054690612b14565b600082556108bb8382611839565b505b50506000805460ff19166001179055565b60005460ff166108f357604051600160e51b62461bcd02815260040161054690612c54565b6000805460ff191690553461091d57604051600160e51b62461bcd02815260040161054690612af4565b60085460ff161561094357604051600160e51b62461bcd02815260040161054690612ad4565b61094d8134611882565b6005543031101561097357604051600160e51b62461bcd02815260040161054690612a34565b600554600754101561099a57604051600160e51b62461bcd02815260040161054690612bf4565b506000805460ff19166001179055565b60005460ff166109cf57604051600160e51b62461bcd02815260040161054690612c54565b6000805460ff19169055336109e2611117565b6001600160a01b031614610a0b57604051600160e51b62461bcd02815260040161054690612b74565b60085460ff1615610a3157604051600160e51b62461bcd02815260040161054690612bb4565b600b54600160a01b900460ff16610a5d57604051600160e51b62461bcd02815260040161054690612bd4565b6002544211610a8157604051600160e51b62461bcd02815260040161054690612a94565b6008805460ff19166001179055610a9661071d565b15610ab957600b54600554610ab4916001600160a01b031690611839565b610ae0565b600b54600454600a54610ae0926001600160a01b039182169291169063ffffffff6117f916565b6040517f32bebcfd2d04dbae321298091d96d2cb1d07279f59718cd83bd98245b8b82b5a90600090a16000805460ff19166001179055565b6001600160a01b03811660009081526009602052604081208054610b40576000915050610c33565b600a546040517f70a082310000000000000000000000000000000000000000000000000000000081526000916001600160a01b0316906370a0823190610b8a9030906004016129a7565b60206040518083038186803b158015610ba257600080fd5b505afa158015610bb6573d6000803e3d6000fd5b505050506040513d601f19601f82011682018060405250610bda9190810190611cab565b9050610be98260000154611962565b9250610bf4836114c9565b92508160010154831115610c1f576001820154610c1890849063ffffffff61199716565b9250610c24565b600092505b80831115610c30578092505b50505b919050565b33610c41611117565b6001600160a01b031614610c6a57604051600160e51b62461bcd02815260040161054690612b74565b60085460ff1615610c9057604051600160e51b62461bcd02815260040161054690612b34565b600b54600160a01b900460ff16610cbc57604051600160e51b62461bcd02815260040161054690612bd4565b6008805461ff001960ff1990911660011716610100179055600b54600454600a54610cfb926001600160a01b039182169291169063ffffffff6117f916565b6040517f737df678223dc1257650e68de7c3edd69a997ef7f4483f56b31daf193147edef90600090a1565b600b546001600160a01b031681565b33610d3e611117565b6001600160a01b031614610d6757604051600160e51b62461bcd02815260040161054690612b74565b60055415610d8a57604051600160e51b62461bcd02815260040161054690612c84565b6007548110610dae57604051600160e51b62461bcd02815260040161054690612a24565b60068190556040517f61486335f79d88f87b5413c53a73db2c972424942b2cfa594c4482645c0cda5d90610de3908390612ca4565b60405180910390a150565b33610df7611117565b6001600160a01b031614610e2057604051600160e51b62461bcd02815260040161054690612b74565b6402540be4008210610e4757604051600160e51b62461bcd02815260040161054690612a84565b6402540be4008110610e6e57604051600160e51b62461bcd02815260040161054690612a84565b42821015610e9157604051600160e51b62461bcd02815260040161054690612ac4565b818111610eb357604051600160e51b62461bcd02815260040161054690612c34565b6003548110610ed757604051600160e51b62461bcd02815260040161054690612c44565b60055415610efa57604051600160e51b62461bcd02815260040161054690612c84565b600182905560028190556040517f5725d1e4352d6944889e54837ffaefde55cdc0b55796b831365d61cd4c87fdb890610f369084908490612cb2565b60405180910390a15050565b33610f4b611117565b6001600160a01b031614610f7457604051600160e51b62461bcd02815260040161054690612b74565b600080546040516101009091046001600160a01b0316907f8be0079c531659141344cd1fd0a4f28419497f9722a3daafe3b4186f6b6457e0908390a36000805474ffffffffffffffffffffffffffffffffffffffff0019169055565b33610fd9611117565b6001600160a01b03161461100257604051600160e51b62461bcd02815260040161054690612b74565b6402540be400811061102957604051600160e51b62461bcd02815260040161054690612a84565b600254811161104d57604051600160e51b62461bcd02815260040161054690612c44565b42811161106f57604051600160e51b62461bcd02815260040161054690612a74565b600354421061109357604051600160e51b62461bcd02815260040161054690612a64565b6003546040517ff2467e1a515f3627fa3780a9f63daf3e30cd40bb20d7d1afec78e7390d25c986916110c6918490612cb2565b60405180910390a1600355565b600454600554600091610735916110f890670de0b6b3a764000063ffffffff6119bd16565b9063ffffffff6119f716565b600254421190565b6111153361073a565b565b60005461010090046001600160a01b031690565b33611134611117565b6001600160a01b03161461115d57604051600160e51b62461bcd02815260040161054690612b74565b60085462010000900460ff1661118857604051600160e51b62461bcd02815260040161054690612b84565b60085460ff16156111ae57604051600160e51b62461bcd02815260040161054690612b34565b600154421180156111c0575060025442105b6111df57604051600160e51b62461bcd02815260040161054690612c24565b6402540be400811061120657604051600160e51b62461bcd02815260040161054690612ba4565b6008805462ff0000191690556002548111156112225760028190555b6002546040517f3c0cdf4601a8b88cfb4f4979f138692c9e2730fa8cbb7ee34d89034af58db0a791610de391612ca4565b3361125c611117565b6001600160a01b03161461128557604051600160e51b62461bcd02815260040161054690612b74565b60085460ff16156112ab57604051600160e51b62461bcd02815260040161054690612b34565b600b54600160a01b900460ff166112d757604051600160e51b62461bcd02815260040161054690612bd4565b600554156112fa57604051600160e51b62461bcd02815260040161054690612b24565b6008805460ff19166001179055600b54600454600a5461132e926001600160a01b039182169291169063ffffffff6117f916565b6040517fa5fb31e47bd1eca58bf14a3312d5e6aeafdc4ee787c8ed348c15c2b092324d9390600090a1565b600a546001600160a01b031681565b33611371611117565b6001600160a01b03161461139a57604051600160e51b62461bcd02815260040161054690612b74565b6001600160a01b0381166113c357604051600160e51b62461bcd02815260040161054690612be4565b600b805473ffffffffffffffffffffffffffffffffffffffff19166001600160a01b0383161790556040517f34ae2bad9265f0212d4cf341708b8250949164bb54f9d0e4f442024f83bb2f9090610de39083906129b5565b33611424611117565b6001600160a01b03161461144d57604051600160e51b62461bcd02815260040161054690612b74565b6005541561147057604051600160e51b62461bcd02815260040161054690612c84565b600654811161149457604051600160e51b62461bcd02815260040161054690612a24565b60078190556040517fb6db1e5f2bf00fafd8c12ac81692dad6bff47db4fda8872ebda5f3d5f3a851f090610de3908390612ca4565b60035460009042116114dd57506000610c33565b6003546114f390623b538063ffffffff6117cd16565b4210611500575080610c33565b600354623b53809061152a9061151d90429063ffffffff61199716565b849063ffffffff6119bd16565b8161153157fe5b049050610c33565b60085460ff1690565b3361154b611117565b6001600160a01b03161461157457604051600160e51b62461bcd02815260040161054690612b74565b60085462010000900460ff16156115a057604051600160e51b62461bcd02815260040161054690612b64565b60085460ff16156115c657604051600160e51b62461bcd02815260040161054690612b34565b600154421180156115d8575060025442105b6115f757604051600160e51b62461bcd02815260040161054690612c24565b6008805462ff00001916620100001790556040517f749d6d79623c8cbd2345906702c70ae75d4254a6c409047c16d52fa5a37ef69890600090a1565b60055460065460075460085460ff808216916101008104821691620100009091041686565b33611661611117565b6001600160a01b03161461168a57604051600160e51b62461bcd02815260040161054690612b74565b6001600160a01b0381166116b357604051600160e51b62461bcd02815260040161054690612a54565b600080546040516001600160a01b038085169361010090930416917f8be0079c531659141344cd1fd0a4f28419497f9722a3daafe3b4186f6b6457e091a3600080546001600160a01b039092166101000274ffffffffffffffffffffffffffffffffffffffff0019909216919091179055565b6040516117c79085907f23b872dd0000000000000000000000000000000000000000000000000000000090611763908790879087906024016129c3565b60408051601f198184030181529190526020810180517bffffffffffffffffffffffffffffffffffffffffffffffffffffffff167fffffffff0000000000000000000000000000000000000000000000000000000090931692909217909152611a2c565b50505050565b818101818110156117f357604051600160e51b62461bcd02815260040161054690612b44565b92915050565b6040516118349084907fa9059cbb000000000000000000000000000000000000000000000000000000009061176390869086906024016129eb565b505050565b6040516000906001600160a01b0384169083156108fc0290849084818181858888f1935050505090508061183457604051600160e51b62461bcd02815260040161054690612b54565b600154421080159061189657506002544211155b6118b557604051600160e51b62461bcd02815260040161054690612c24565b60085462010000900460ff16156118e157604051600160e51b62461bcd02815260040161054690612b94565b6001600160a01b0382166000908152600960205260409020805461190b908363ffffffff6117cd16565b8155600554611920908363ffffffff6117cd16565b6005556040517f077511a636ba1f10551cc7b89c13ff66a6ac9344e8a917527817a9690b15af7a9061195590859085906129eb565b60405180910390a1505050565b60055460009061197457506000610c33565b6117f361197f6110d3565b6110f884670de0b6b3a764000063ffffffff6119bd16565b808203828111156117f357604051600160e51b62461bcd02815260040161054690612a14565b60008115806119d8575050808202828282816119d557fe5b04145b6117f357604051600160e51b62461bcd02815260040161054690612c64565b6000808211611a1b57604051600160e51b62461bcd02815260040161054690612c94565b818381611a2457fe5b049392505050565b611a3e826001600160a01b0316611b1a565b611a5d57604051600160e51b62461bcd02815260040161054690612c74565b60006060836001600160a01b031683604051611a79919061299b565b6000604051808303816000865af19150503d8060008114611ab6576040519150601f19603f3d011682016040523d82523d6000602084013e611abb565b606091505b509150915081611ae057604051600160e51b62461bcd02815260040161054690612ab4565b8051156117c75780806020019051611afb9190810190611c6f565b6117c757604051600160e51b62461bcd02815260040161054690612c14565b6000813f7fc5d2460186f7233c927e7db2dcc703c0e500b653ca82273b7bfad8045d85a470818114801590611b4e57508115155b949350505050565b6000611b628235612d65565b9392505050565b6000611b628251612d70565b6000611b628235612d81565b6000611b628251612d81565b600060208284031215611b9f57600080fd5b6000611b4e8484611b56565b60008060008060008060008060006101208a8c031215611bca57600080fd5b6000611bd68c8c611b56565b9950506020611be78c828d01611b56565b9850506040611bf88c828d01611b75565b9750506060611c098c828d01611b75565b9650506080611c1a8c828d01611b75565b95505060a0611c2b8c828d01611b75565b94505060c0611c3c8c828d01611b75565b93505060e0611c4d8c828d01611b75565b925050610100611c5f8c828d01611b56565b9150509295985092959850929598565b600060208284031215611c8157600080fd5b6000611b4e8484611b69565b600060208284031215611c9f57600080fd5b6000611b4e8484611b75565b600060208284031215611cbd57600080fd5b6000611b4e8484611b81565b60008060408385031215611cdc57600080fd5b6000611ce88585611b75565b9250506020611cf985828601611b75565b9150509250929050565b611d0c81612d84565b82525050565b611d0c81612d65565b611d0c81612d70565b6000611d2f82612d58565b611d398185610c33565b9350611d49818560208601612d95565b9290920192915050565b6000611d60601583612d5c565b7f426f72696e674d6174683a20556e646572666c6f770000000000000000000000815260200192915050565b6000611d99602c83612d5c565b7f41756374696f6e537761703a206d696e206d617820636f6d6d69746d656e742081527f616d6f756e74206572726f720000000000000000000000000000000000000000602082015260400192915050565b6000611df8603383612d5c565b7f41756374696f6e537761703a2054686520636f6d6d6974746564204b4c41592081527f65786365656473207468652062616c616e636500000000000000000000000000602082015260400192915050565b6000611e57601a83612d5c565b7f41756374696f6e537761703a204e6f742066696e616c697a6564000000000000815260200192915050565b6000611e90602683612d5c565b7f4f776e61626c653a206e6577206f776e657220697320746865207a65726f206181527f6464726573730000000000000000000000000000000000000000000000000000602082015260400192915050565b6000611eef602083612d5c565b7f41756374696f6e537761703a20416c726561647920636c61696d207374617274815260200192915050565b6000611f28603b83612d5c565b7f41756374696f6e537761703a20636c61696d61626c652074696d65206d75737481527f206265206f6c646572207468616e2063757272656e742074696d650000000000602082015260400192915050565b6000611f87604083612d5c565b7f41756374696f6e537761703a20656e74657220616e20756e69782074696d657381527f74616d7020696e207365636f6e64732c206e6f74206d696c697365636f6e6473602082015260400192915050565b6000611fe6602983612d5c565b7f41756374696f6e537761703a2041756374696f6e20686173206e6f742066696e81527f6973686564207965740000000000000000000000000000000000000000000000602082015260400192915050565b6000612045601f83612d5c565b7f41756374696f6e537761703a20616c7265617920696e697469616c697a656400815260200192915050565b600061207e602083612d5c565b7f5361666545524332303a206c6f772d6c6576656c2063616c6c206661696c6564815260200192915050565b60006120b7602e83612d5c565b7f41756374696f6e537761703a2073746172742074696d65206973206265666f7281527f652063757272656e742074696d65000000000000000000000000000000000000602082015260400192915050565b6000612116601e83612d5c565b7f41756374696f6e537761703a2041756374696f6e2066696e616c697a65640000815260200192915050565b600061214f601f83612d5c565b7f41756374696f6e537761703a204e6f20746f6b656e7320746f20636c61696d00815260200192915050565b6000612188602883612d5c565b7f41756374696f6e537761703a2056616c7565206d75737420626520686967686581527f72207468616e2030000000000000000000000000000000000000000000000000602082015260400192915050565b60006121e7603383612d5c565b7f41756374696f6e537761703a20656e642074696d65206d757374206265206f6c81527f646572207468616e2073746172742074696d6500000000000000000000000000602082015260400192915050565b6000612246601f83612d5c565b7f41756374696f6e537761703a204e6f2066756e647320636f6d6d697474656400815260200192915050565b600061227f602183612d5c565b7f41756374696f6e537761703a2046756e647320616c726561647920726169736581527f6400000000000000000000000000000000000000000000000000000000000000602082015260400192915050565b60006122de601e83612d5c565b7f41756374696f6e537761703a20416c72656164792066696e616c697a65640000815260200192915050565b6000612317601883612d5c565b7f426f72696e674d6174683a20416464204f766572666c6f770000000000000000815260200192915050565b6000612350602183612d5c565b7f41756374696f6e537761703a204b4c41595f5452414e534645525f4641494c4581527f4400000000000000000000000000000000000000000000000000000000000000602082015260400192915050565b60006123af601b83612d5c565b7f41756374696f6e537761703a20416c7265616479207061757365640000000000815260200192915050565b60006123e8602083612d5c565b7f4f776e61626c653a2063616c6c6572206973206e6f7420746865206f776e6572815260200192915050565b6000612421601b83612d5c565b7f41756374696f6e537761703a20416c7265617920726573756d65640000000000815260200192915050565b600061245a601c83612d5c565b7f41756374696f6e537761703a2041756374696f6e207061757365642100000000815260200192915050565b6000612493604083612d5c565b7f41756374696f6e537761703a20456e74657220616e20756e69782074696d657381527f74616d7020696e207365636f6e64732c206e6f74206d696c697365636f6e6473602082015260400192915050565b60006124f2602a83612d5c565b7f41756374696f6e537761703a2041756374696f6e2068617320616c726561647981527f2066696e616c697a656400000000000000000000000000000000000000000000602082015260400192915050565b6000612551601a83612d5c565b7f41756374696f6e537761703a204e6f7420636c61696d61626c65000000000000815260200192915050565b600061258a601c83612d5c565b7f41756374696f6e537761703a204e6f7420696e697469616c697a656400000000815260200192915050565b60006125c3602783612d5c565b7f41756374696f6e537761703a2077616c6c657420697320746865207a65726f2081527f6164647265737300000000000000000000000000000000000000000000000000602082015260400192915050565b6000612622603f83612d5c565b7f41756374696f6e537761703a2054686520636f6d6d6974746564204b4c41592081527f65786365656473206d6178696d756d436f6d6d69746d656e74416d6f756e7400602082015260400192915050565b6000612681603383612d5c565b7f41756374696f6e537761703a20746f74616c20746f6b656e73206d757374206281527f652067726561746572207468616e207a65726f00000000000000000000000000602082015260400192915050565b60006126e0602a83612d5c565b7f5361666545524332303a204552433230206f7065726174696f6e20646964206e81527f6f74207375636365656400000000000000000000000000000000000000000000602082015260400192915050565b600061273f602283612d5c565b7f41756374696f6e537761703a204f7574736964652061756374696f6e20686f7581527f7273000000000000000000000000000000000000000000000000000000000000602082015260400192915050565b600061279e603483612d5c565b7f41756374696f6e537761703a20656e642074696d65206d757374206265206f6c81527f646572207468616e207374617274207072696365000000000000000000000000602082015260400192915050565b60006127fd603f83612d5c565b7f41756374696f6e537761703a20636c61696d61626c652074696d65206d75737481527f206265206f6c646572207468616e2061756374696f6e20656e642074696d6500602082015260400192915050565b600061285c601f83612d5c565b7f5265656e7472616e637947756172643a207265656e7472616e742063616c6c00815260200192915050565b6000612895601883612d5c565b7f426f72696e674d6174683a204d756c204f766572666c6f770000000000000000815260200192915050565b60006128ce601f83612d5c565b7f5361666545524332303a2063616c6c20746f206e6f6e2d636f6e747261637400815260200192915050565b6000612907603083612d5c565b7f41756374696f6e537761703a2061756374696f6e2063616e6e6f74206861766581527f20616c7265616479207374617274656400000000000000000000000000000000602082015260400192915050565b6000612966601483612d5c565b7f426f72696e674d6174683a20446976207a65726f000000000000000000000000815260200192915050565b611d0c81612d81565b6000611b628284611d24565b602081016117f38284611d12565b602081016117f38284611d03565b606081016129d18286611d12565b6129de6020830185611d12565b611b4e6040830184612992565b604081016129f98285611d12565b611b626020830184612992565b602081016117f38284611d1b565b602080825281016117f381611d53565b602080825281016117f381611d8c565b602080825281016117f381611deb565b602080825281016117f381611e4a565b602080825281016117f381611e83565b602080825281016117f381611ee2565b602080825281016117f381611f1b565b602080825281016117f381611f7a565b602080825281016117f381611fd9565b602080825281016117f381612038565b602080825281016117f381612071565b602080825281016117f3816120aa565b602080825281016117f381612109565b602080825281016117f381612142565b602080825281016117f38161217b565b602080825281016117f3816121da565b602080825281016117f381612239565b602080825281016117f381612272565b602080825281016117f3816122d1565b602080825281016117f38161230a565b602080825281016117f381612343565b602080825281016117f3816123a2565b602080825281016117f3816123db565b602080825281016117f381612414565b602080825281016117f38161244d565b602080825281016117f381612486565b602080825281016117f3816124e5565b602080825281016117f381612544565b602080825281016117f38161257d565b602080825281016117f3816125b6565b602080825281016117f381612615565b602080825281016117f381612674565b602080825281016117f3816126d3565b602080825281016117f381612732565b602080825281016117f381612791565b602080825281016117f3816127f0565b602080825281016117f38161284f565b602080825281016117f381612888565b602080825281016117f3816128c1565b602080825281016117f3816128fa565b602080825281016117f381612959565b602081016117f38284612992565b604081016129f98285612992565b60c08101612cce8289612992565b612cdb6020830188612992565b612ce86040830187612992565b612cf56060830186611d1b565b612d026080830185611d1b565b612d0f60a0830184611d1b565b979650505050505050565b60808101612d288287612992565b612d356020830186612992565b612d426040830185612992565b612d4f6060830184612992565b95945050505050565b5190565b90815260200190565b60006117f382612d75565b151590565b6001600160a01b031690565b90565b60006117f38260006117f382612d65565b60005b83811015612db0578181015183820152602001612d98565b838111156117c7575050600091015256fea265627a7a72305820da80206fae871eed9663e69ade83173df6830ca3553b106212d1acebd7a3e7736c6578706572696d656e74616cf50037",
  "devdoc": {
    "methods": {
      "auctionEnded()": {
        "return": "bool True if current time is greater than auction end time."
      },
      "auctionSuccessful()": {
        "return": "True if tokens sold greater than or equals to the minimum commitment amount."
      },
      "cancelAuction()": {
        "details": "Admin can cancel the auction before it starts"
      },
      "commitKLAY(address)": {
        "params": {
          "beneficiary": "Auction participant KLAY address."
        }
      },
      "emergencyCancelAuction()": {
        "details": "emergency only. admin function"
      },
      "finalize()": {
        "details": "Transfer contract funds to initialized wallet."
      },
      "finalized()": {
        "return": "bool True if auction has been finalised."
      },
      "initAuction(address,address,uint256,uint256,uint256,uint256,uint256,uint256,address)": {
        "details": "Init function.",
        "params": {
          "claimableTime": "Token claimable time if auction success.",
          "endTime": "Auction end time.",
          "funder": "The address that funds the token for BatchAuction.",
          "maximumCommitmentAmount": "Maximum amount collected at which the auction will be successful.",
          "minimumCommitmentAmount": "Minimum amount collected at which the auction will be successful.",
          "startTime": "Auction start time.",
          "token": "Address of the token being sold.",
          "totalTokens": "The total number of tokens to sell in auction.",
          "wallet_": "Address where collected funds will be forwarded to."
        }
      },
      "owner()": {
        "details": "Returns the address of the current owner."
      },
      "pauseAuction()": {
        "details": "Admin can pause auction during auction. "
      },
      "renounceOwnership()": {
        "details": "Leaves the contract without owner. It will not be possible to call `onlyOwner` functions anymore. Can only be called by the current owner.     * NOTE: Renouncing ownership will leave the contract without an owner, thereby removing any functionality that is only available to the owner."
      },
      "resumeAuction(uint256)": {
        "details": "Admin can resume auction and can extend end time "
      },
      "setAuctionMaxPrice(uint256)": {
        "params": {
          "maximumCommitmentAmount": "Auction maximum raised target."
        }
      },
      "setAuctionMinPrice(uint256)": {
        "params": {
          "minimumCommitmentAmount": "Auction minimum raised target."
        }
      },
      "setAuctionTime(uint256,uint256)": {
        "params": {
          "endTime": "Auction end time.",
          "startTime": "Auction start time."
        }
      },
      "setAuctionWallet(address)": {
        "params": {
          "wallet_": "Auction wallet is where funds will be sent."
        }
      },
      "setClaimableTime(uint256)": {
        "params": {
          "claimableTime": "timestamp in second"
        }
      },
      "tokenPrice()": {
        "return": "Token price."
      },
      "tokensClaimable(address)": {
        "params": {
          "user_": "Auction participant address."
        },
        "return": "claimerCommitment Tokens left to claim."
      },
      "tokensVested(uint256)": {
        "params": {
          "totalAmount": "total token amount"
        }
      },
      "transferOwnership(address)": {
        "details": "Transfers ownership of the contract to a new account (`newOwner`). Can only be called by the current owner."
      }
    },
    "title": "CLA Token Batch Auction Contract References: * - https://github.com/sushiswap/miso/blob/master/contracts/Auctions/BatchAuction.sol"
  },
  "userdoc": {
    "methods": {
      "auctionEnded()": {
        "notice": "Checks if the auction has ended."
      },
      "auctionSuccessful()": {
        "notice": "Checks if raised more than minimum amount."
      },
      "cancelAuction()": {
        "notice": "Cancel Auction before start"
      },
      "commitKLAY(address)": {
        "notice": "Commit KLAY to buy tokens on auction."
      },
      "emergencyCancelAuction()": {
        "notice": "Cancel Auction during auction."
      },
      "finalize()": {
        "notice": "-------------------------------------------------------- Finalize, Stop, Resume Auction --------------------------------------------------------Auction finishes successfully above the reserve"
      },
      "finalized()": {
        "notice": "Checks if the auction has been finalised."
      },
      "initAuction(address,address,uint256,uint256,uint256,uint256,uint256,uint256,address)": {
        "notice": "Initializes main contract variables and transfers funds for the auction."
      },
      "pauseAuction()": {
        "notice": "pause auction during auction."
      },
      "resumeAuction(uint256)": {
        "notice": "resume auction during auction and can extend end time"
      },
      "setAuctionMaxPrice(uint256)": {
        "notice": "Admin can set start and min price through this function."
      },
      "setAuctionMinPrice(uint256)": {
        "notice": "Admin can set start and min price through this function."
      },
      "setAuctionTime(uint256,uint256)": {
        "notice": "Admin can set start and end time through this function."
      },
      "setAuctionWallet(address)": {
        "notice": "Admin can set the auction wallet through this function."
      },
      "setClaimableTime(uint256)": {
        "notice": "Admin can change cla claimable time through this function"
      },
      "tokenPrice()": {
        "notice": "Calculates the price of each token from all commitments."
      },
      "tokensClaimable(address)": {
        "notice": "How many tokens the user is able to claim."
      },
      "tokensVested(uint256)": {
        "notice": "How many tokens that user is able to claim if total amount is given"
      },
      "withdrawTokens()": {
        "notice": "Withdraws bought tokens, or returns commitment if the sale is unsuccessful."
      },
      "withdrawTokens(address)": {
        "notice": "Withdraw your tokens once the Auction has ended."
      }
    }
  }
}