{
  "address": "0xE9e1031eEAA5817E4706BE294c3Bb4681FDb2447",
  "abi": [
    {
      "constant": true,
      "inputs": [],
      "name": "clsRewardRatio",
      "outputs": [
        {
          "name": "",
          "type": "uint256"
        }
      ],
      "payable": false,
      "stateMutability": "view",
      "type": "function"
    },
    {
      "constant": false,
      "inputs": [
        {
          "name": "to",
          "type": "address"
        }
      ],
      "name": "harvest",
      "outputs": [],
      "payable": false,
      "stateMutability": "nonpayable",
      "type": "function"
    },
    {
      "constant": true,
      "inputs": [],
      "name": "bonusEndBlock",
      "outputs": [
        {
          "name": "",
          "type": "uint256"
        }
      ],
      "payable": false,
      "stateMutability": "view",
      "type": "function"
    },
    {
      "constant": false,
      "inputs": [
        {
          "name": "rewarder_",
          "type": "address"
        }
      ],
      "name": "setRewarder",
      "outputs": [],
      "payable": false,
      "stateMutability": "nonpayable",
      "type": "function"
    },
    {
      "constant": false,
      "inputs": [
        {
          "name": "user",
          "type": "address"
        },
        {
          "name": "amount",
          "type": "uint256"
        }
      ],
      "name": "deposit",
      "outputs": [],
      "payable": false,
      "stateMutability": "nonpayable",
      "type": "function"
    },
    {
      "constant": true,
      "inputs": [],
      "name": "startBlock",
      "outputs": [
        {
          "name": "",
          "type": "uint256"
        }
      ],
      "payable": false,
      "stateMutability": "view",
      "type": "function"
    },
    {
      "constant": true,
      "inputs": [
        {
          "name": "from",
          "type": "uint256"
        },
        {
          "name": "to",
          "type": "uint256"
        }
      ],
      "name": "claPerBlocks",
      "outputs": [
        {
          "name": "",
          "type": "uint256"
        }
      ],
      "payable": false,
      "stateMutability": "view",
      "type": "function"
    },
    {
      "constant": true,
      "inputs": [
        {
          "name": "",
          "type": "address"
        }
      ],
      "name": "rewardDebt",
      "outputs": [
        {
          "name": "",
          "type": "int256"
        }
      ],
      "payable": false,
      "stateMutability": "view",
      "type": "function"
    },
    {
      "constant": true,
      "inputs": [],
      "name": "cla",
      "outputs": [
        {
          "name": "",
          "type": "address"
        }
      ],
      "payable": false,
      "stateMutability": "view",
      "type": "function"
    },
    {
      "constant": true,
      "inputs": [],
      "name": "poolInfo",
      "outputs": [
        {
          "name": "accClaPerShare",
          "type": "uint256"
        },
        {
          "name": "lastRewardBlock",
          "type": "uint256"
        }
      ],
      "payable": false,
      "stateMutability": "view",
      "type": "function"
    },
    {
      "constant": false,
      "inputs": [],
      "name": "renounceOwnership",
      "outputs": [],
      "payable": false,
      "stateMutability": "nonpayable",
      "type": "function"
    },
    {
      "constant": true,
      "inputs": [
        {
          "name": "user",
          "type": "address"
        }
      ],
      "name": "pendingCla",
      "outputs": [
        {
          "name": "pending",
          "type": "uint256"
        }
      ],
      "payable": false,
      "stateMutability": "view",
      "type": "function"
    },
    {
      "constant": true,
      "inputs": [],
      "name": "owner",
      "outputs": [
        {
          "name": "",
          "type": "address"
        }
      ],
      "payable": false,
      "stateMutability": "view",
      "type": "function"
    },
    {
      "constant": true,
      "inputs": [],
      "name": "cls",
      "outputs": [
        {
          "name": "",
          "type": "address"
        }
      ],
      "payable": false,
      "stateMutability": "view",
      "type": "function"
    },
    {
      "constant": true,
      "inputs": [],
      "name": "miningTreasury",
      "outputs": [
        {
          "name": "",
          "type": "address"
        }
      ],
      "payable": false,
      "stateMutability": "view",
      "type": "function"
    },
    {
      "constant": false,
      "inputs": [
        {
          "name": "miningTreasury_",
          "type": "address"
        }
      ],
      "name": "setMiningTreasury",
      "outputs": [],
      "payable": false,
      "stateMutability": "nonpayable",
      "type": "function"
    },
    {
      "constant": false,
      "inputs": [
        {
          "name": "clsRewardRatio_",
          "type": "uint256"
        },
        {
          "name": "withUpdate",
          "type": "bool"
        }
      ],
      "name": "setClsRewardRatio",
      "outputs": [],
      "payable": false,
      "stateMutability": "nonpayable",
      "type": "function"
    },
    {
      "constant": true,
      "inputs": [],
      "name": "claPerBlock",
      "outputs": [
        {
          "name": "",
          "type": "uint256"
        }
      ],
      "payable": false,
      "stateMutability": "view",
      "type": "function"
    },
    {
      "constant": true,
      "inputs": [],
      "name": "rewarder",
      "outputs": [
        {
          "name": "",
          "type": "address"
        }
      ],
      "payable": false,
      "stateMutability": "view",
      "type": "function"
    },
    {
      "constant": false,
      "inputs": [],
      "name": "updatePool",
      "outputs": [],
      "payable": false,
      "stateMutability": "nonpayable",
      "type": "function"
    },
    {
      "constant": false,
      "inputs": [
        {
          "name": "newOwner",
          "type": "address"
        }
      ],
      "name": "transferOwnership",
      "outputs": [],
      "payable": false,
      "stateMutability": "nonpayable",
      "type": "function"
    },
    {
      "constant": false,
      "inputs": [
        {
          "name": "user",
          "type": "address"
        },
        {
          "name": "amount",
          "type": "uint256"
        }
      ],
      "name": "withdraw",
      "outputs": [],
      "payable": false,
      "stateMutability": "nonpayable",
      "type": "function"
    },
    {
      "inputs": [
        {
          "name": "cls_",
          "type": "address"
        },
        {
          "name": "cla_",
          "type": "address"
        },
        {
          "name": "miningTreasury_",
          "type": "address"
        },
        {
          "name": "rewarder_",
          "type": "address"
        },
        {
          "name": "startBlock_",
          "type": "uint256"
        },
        {
          "name": "migrationEndBlock_",
          "type": "uint256"
        }
      ],
      "payable": false,
      "stateMutability": "nonpayable",
      "type": "constructor"
    },
    {
      "anonymous": false,
      "inputs": [
        {
          "indexed": true,
          "name": "user",
          "type": "address"
        },
        {
          "indexed": false,
          "name": "amount",
          "type": "uint256"
        }
      ],
      "name": "Deposit",
      "type": "event"
    },
    {
      "anonymous": false,
      "inputs": [
        {
          "indexed": true,
          "name": "user",
          "type": "address"
        },
        {
          "indexed": false,
          "name": "amount",
          "type": "uint256"
        }
      ],
      "name": "Withdraw",
      "type": "event"
    },
    {
      "anonymous": false,
      "inputs": [
        {
          "indexed": true,
          "name": "user",
          "type": "address"
        },
        {
          "indexed": false,
          "name": "amount",
          "type": "uint256"
        },
        {
          "indexed": true,
          "name": "to",
          "type": "address"
        }
      ],
      "name": "Harvest",
      "type": "event"
    },
    {
      "anonymous": false,
      "inputs": [
        {
          "indexed": false,
          "name": "clsSupply",
          "type": "uint256"
        },
        {
          "indexed": false,
          "name": "accClaPerShare",
          "type": "uint256"
        }
      ],
      "name": "UpdatePool",
      "type": "event"
    },
    {
      "anonymous": false,
      "inputs": [
        {
          "indexed": false,
          "name": "clsRewardRatio",
          "type": "uint256"
        }
      ],
      "name": "UpdateClsRewardRatio",
      "type": "event"
    },
    {
      "anonymous": false,
      "inputs": [
        {
          "indexed": true,
          "name": "rewarder",
          "type": "address"
        }
      ],
      "name": "SetRewarder",
      "type": "event"
    },
    {
      "anonymous": false,
      "inputs": [
        {
          "indexed": true,
          "name": "previousOwner",
          "type": "address"
        },
        {
          "indexed": true,
          "name": "newOwner",
          "type": "address"
        }
      ],
      "name": "OwnershipTransferred",
      "type": "event"
    }
  ],
  "transactionHash": "0x3345f2de25fac03b1544f8724e3f67c6a4339a9c1b5a3eb64cc0bf5f1c186b82",
  "args": [
    "0x5F5dEC0d6402408eE81f52ab985a9C665b6e6010",
    "0xCF87f94fD8F6B6f0b479771F10dF672f99eADa63",
    "0x54FB37b0D56D837BC021d89f3cd833dE87BAf09e",
    "0x0000000000000000000000000000000000000000",
    "77915200",
    "79124800"
  ],
  "solcInputHash": "0cc9ebcf1c4519c468b5231cdb972881",
  "bytecode": "0x60806040523480156200001157600080fd5b5060405160c08062001ee5833981018060405262000033919081019062000218565b600080546001600160a01b031916339081178255604051909182917f8be0079c531659141344cd1fd0a4f28419497f9722a3daafe3b4186f6b6457e0908290a350600280546001600160a01b03199081166001600160a01b03898116919091179092556003805482168884161790556004805482168784161790556005805490911691851691909117905560078190556008829055620000f9620000e4828462000109602090811b6200141917901c565b826200015a60201b6200145b1790919060201c565b600a5550620003c5945050505050565b60006200015383836040518060400160405280601e81526020017f536166654d6174683a207375627472616374696f6e206f766572666c6f770000815250620001a560201b60201c565b9392505050565b60008282018381101562000153576040517f08c379a00000000000000000000000000000000000000000000000000000000081526004016200019c906200033a565b60405180910390fd5b60008184841115620001e6576040517f08c379a00000000000000000000000000000000000000000000000000000000081526004016200019c919062000327565b505050900390565b60006200015382516200035f565b60006200015382516200036c565b600062000153825162000385565b60008060008060008060c087890312156200023257600080fd5b6000620002408989620001ee565b96505060206200025389828a01620001fc565b95505060406200026689828a01620001fc565b94505060606200027989828a01620001fc565b93505060806200028c89828a016200020a565b92505060a06200029f89828a016200020a565b9150509295509295509295565b6000620002b98262000352565b620002c5818562000356565b9350620002d781856020860162000388565b620002e281620003bb565b9093019392505050565b6000620002fb601b8362000356565b7f536166654d6174683a206164646974696f6e206f766572666c6f770000000000815260200192915050565b60208082528101620001538184620002ac565b602080825281016200034c81620002ec565b92915050565b5190565b90815260200190565b60006200034c8262000379565b60006200034c826200035f565b6001600160a01b031690565b90565b60005b83811015620003a55781810151838201526020016200038b565b83811115620003b5576000848401525b50505050565b601f01601f191690565b611b1080620003d56000396000f3fe608060405234801561001057600080fd5b50600436106101825760003560e01c806377b170f2116100d8578063b72366941161008c578063e3161ddd11610066578063e3161ddd146102b7578063f2fde38b146102bf578063f3fef3a3146102d257610182565b8063b723669414610294578063bb68742e146102a7578063dcc3e06e146102af57610182565b8063929f18e4116100bd578063929f18e414610271578063b08710d714610279578063b54f8a921461028157610182565b806377b170f2146102495780638da5cb5b1461025c57610182565b806348cd4cb11161013a5780635884cd80116101145780635884cd80146102165780635a2f3d091461022b578063715018a61461024157610182565b806348cd4cb1146101e857806355f8a601146101f05780635873eb9b1461020357610182565b80631aed65531161016b5780631aed6553146101ba5780633a6462e4146101c257806347e7ef24146101d557610182565b806308f97c05146101875780630e5c011e146101a5575b600080fd5b61018f6102e5565b60405161019c9190611925565b60405180910390f35b6101b86101b3366004611514565b6102eb565b005b61018f61055c565b6101b86101d036600461158a565b610562565b6101b86101e3366004611532565b6105fa565b61018f6107bc565b61018f6101fe3660046115f6565b6107c2565b61018f610211366004611514565b610936565b61021e610948565b60405161019c9190611917565b610233610957565b60405161019c929190611a45565b6101b8610960565b61018f610257366004611514565b6109e9565b610264610b62565b60405161019c91906118e0565b610264610b71565b61021e610b80565b6101b861028f36600461158a565b610b8f565b6101b86102a23660046115c6565b610bf0565b61018f610c6c565b61021e610c7c565b6101b8610c8b565b6101b86102cd366004611514565b610e44565b6101b86102e0366004611532565b610f07565b60095481565b6102f3610c8b565b6102fb6114b2565b5060408051808201825260065480825260075460208301526002549251600160e01b6370a08231028152919260009264e8d4a51000926103b39290916001600160a01b03909116906370a08231906103579033906004016118ee565b60206040518083038186803b15801561036f57600080fd5b505afa158015610383573d6000803e3d6000fd5b505050506040513d601f19601f820116820180604052506103a791908101906115a8565b9063ffffffff6110bc16565b816103ba57fe5b33600090815260016020526040812054929091049250906103eb906103e690849063ffffffff61110016565b611149565b3360009081526001602052604090208390559050801561040f5761040f8482611176565b6005546001600160a01b0316801561050a57600254604051600160e01b6370a082310281526001600160a01b038381169263134ecffb9260009233928b928992909116906370a08231906104679086906004016118ee565b60206040518083038186803b15801561047f57600080fd5b505afa158015610493573d6000803e3d6000fd5b505050506040513d601f19601f820116820180604052506104b791908101906115a8565b6040518663ffffffff1660e01b81526004016104d7959493929190611933565b600060405180830381600087803b1580156104f157600080fd5b505af1158015610505573d6000803e3d6000fd5b505050505b846001600160a01b0316336001600160a01b03167f49e6aa9a971bb7d18b2ede509ae7267a8861aae4e7c444a27af1d3037d7391178460405161054d9190611925565b60405180910390a35050505050565b600a5481565b3361056b610b62565b6001600160a01b03161461059d57604051600160e51b62461bcd02815260040161059490611a25565b60405180910390fd5b6005805473ffffffffffffffffffffffffffffffffffffffff19166001600160a01b0383811691909117918290556040519116907fcf0aff36caea97f7ad632b334936cb196014c193ac1a790b578f12a70d9836db90600090a250565b6002546001600160a01b0316331461061157600080fd5b610619610c8b565b6006546106669064e8d4a510009061063890849063ffffffff6110bc16565b8161063f57fe5b6001600160a01b03851660009081526001602052604090205491900463ffffffff61134b16565b6001600160a01b0380841660009081526001602052604090209190915560055416801561077657600254604051600160e01b6370a082310281526001600160a01b038381169263134ecffb92600092889283928592909116906370a08231906106d39085906004016118e0565b60206040518083038186803b1580156106eb57600080fd5b505afa1580156106ff573d6000803e3d6000fd5b505050506040513d601f19601f8201168201806040525061072391908101906115a8565b6040518663ffffffff1660e01b815260040161074395949392919061197f565b600060405180830381600087803b15801561075d57600080fd5b505af1158015610771573d6000803e3d6000fd5b505050505b826001600160a01b03167fe1fffcc4923d04b559f4d29a8bfc6cda04eb5b0d3c460751c2402c5c5cc9109c836040516107af9190611925565b60405180910390a2505050565b60085481565b6000818311156107d157600080fd5b600a548310156108785760006107eb60026103a786611394565b905060006107f884611394565b9050600a54841161082057610817826103a7868863ffffffff61141916565b92505050610930565b61081761084861083b600a548761141990919063ffffffff16565b839063ffffffff6110bc16565b600a5461086c9061085f908963ffffffff61141916565b859063ffffffff6110bc16565b9063ffffffff61145b16565b600061088384611394565b9050600061089084611394565b9050808214156108ae57610817826103a7868863ffffffff61141916565b6008546000906108e59061086c6303b53800806108d18a8563ffffffff61141916565b816108d857fe5b049063ffffffff6110bc16565b905061092a61090a6108fd878463ffffffff61141916565b849063ffffffff6110bc16565b61086c61091d848a63ffffffff61141916565b869063ffffffff6110bc16565b93505050505b92915050565b60016020526000908152604090205481565b6003546001600160a01b031681565b60065460075482565b33610969610b62565b6001600160a01b03161461099257604051600160e51b62461bcd02815260040161059490611a25565b600080546040516001600160a01b03909116907f8be0079c531659141344cd1fd0a4f28419497f9722a3daafe3b4186f6b6457e0908390a36000805473ffffffffffffffffffffffffffffffffffffffff19169055565b600654600254604080517f18160ddd00000000000000000000000000000000000000000000000000000000815290516000939284926001600160a01b03909116916318160ddd91600480820192602092909190829003018186803b158015610a5057600080fd5b505afa158015610a64573d6000803e3d6000fd5b505050506040513d601f19601f82011682018060405250610a8891908101906115a8565b60075490915043118015610a9b57508015155b15610aed576000610ab1600660010154436107c2565b90508015610aeb57610ae882610ad28364e8d4a5100063ffffffff6110bc16565b81610ad957fe5b8591900463ffffffff61145b16565b92505b505b6001600160a01b0380851660009081526001602052604090819020546002549151600160e01b6370a08231028152610b5a936103e69364e8d4a5100092610b4692899216906370a0823190610357908d906004016118e0565b81610b4d57fe5b049063ffffffff61110016565b949350505050565b6000546001600160a01b031690565b6002546001600160a01b031681565b6004546001600160a01b031681565b33610b98610b62565b6001600160a01b031614610bc157604051600160e51b62461bcd02815260040161059490611a25565b6004805473ffffffffffffffffffffffffffffffffffffffff19166001600160a01b0392909216919091179055565b6004546001600160a01b03163314610c1d57604051600160e51b62461bcd028152600401610594906119c5565b8015610c2b57610c2b610c8b565b60098290556040517f58d56be878db086f4227d5c3049e8059f19a10f95dfe6861b720a6adc310463e90610c60908490611925565b60405180910390a15050565b6000610c7743611394565b905090565b6005546001600160a01b031681565b600754431115610e4257600254604080517f18160ddd00000000000000000000000000000000000000000000000000000000815290516000926001600160a01b0316916318160ddd916004808301926020929190829003018186803b158015610cf357600080fd5b505afa158015610d07573d6000803e3d6000fd5b505050506040513d601f19601f82011682018060405250610d2b91908101906115a8565b90508015610e00576000610d44600660010154436107c2565b90508015610dfe57600480546040517f12514bba0000000000000000000000000000000000000000000000000000000081526001600160a01b03909116916312514bba91610d9491859101611925565b600060405180830381600087803b158015610dae57600080fd5b505af1158015610dc2573d6000803e3d6000fd5b50505050610dfa82610de264e8d4a51000846110bc90919063ffffffff16565b81610de957fe5b60065491900463ffffffff61145b16565b6006555b505b436007556006546040517fb35b339eddbb63628f41e89a03d766f91076301cf1fef334e1dbd88de63fc18691610e3891849190611a45565b60405180910390a1505b565b33610e4d610b62565b6001600160a01b031614610e7657604051600160e51b62461bcd02815260040161059490611a25565b6001600160a01b038116610e9f57604051600160e51b62461bcd028152600401610594906119d5565b600080546040516001600160a01b03808516939216917f8be0079c531659141344cd1fd0a4f28419497f9722a3daafe3b4186f6b6457e091a36000805473ffffffffffffffffffffffffffffffffffffffff19166001600160a01b0392909216919091179055565b6002546001600160a01b03163314610f1e57600080fd5b610f26610c8b565b600654610f739064e8d4a5100090610f4590849063ffffffff6110bc16565b81610f4c57fe5b6001600160a01b03851660009081526001602052604090205491900463ffffffff61110016565b6001600160a01b0380841660009081526001602052604090209190915560055416801561108357600254604051600160e01b6370a082310281526001600160a01b038381169263134ecffb92600092889283928592909116906370a0823190610fe09085906004016118e0565b60206040518083038186803b158015610ff857600080fd5b505afa15801561100c573d6000803e3d6000fd5b505050506040513d601f19601f8201168201806040525061103091908101906115a8565b6040518663ffffffff1660e01b815260040161105095949392919061197f565b600060405180830381600087803b15801561106a57600080fd5b505af115801561107e573d6000803e3d6000fd5b505050505b826001600160a01b03167f884edad9ce6fa2440d8a54cc123490eb96d2768479d49ff9c7366125a9424364836040516107af9190611925565b6000826110cb57506000610930565b828202828482816110d857fe5b04146110f957604051600160e51b62461bcd02815260040161059490611a15565b9392505050565b60008183038183128015906111155750838113155b8061112a575060008312801561112a57508381135b6110f957604051600160e51b62461bcd02815260040161059490611a35565b60008082121561116e57604051600160e51b62461bcd02815260040161059490611a05565b50805b919050565b600354604051600160e01b6370a082310281526000916001600160a01b0316906370a08231906111aa9030906004016118e0565b60206040518083038186803b1580156111c257600080fd5b505afa1580156111d6573d6000803e3d6000fd5b505050506040513d601f19601f820116820180604052506111fa91908101906115a8565b9050808211156112a7576003546040517fa9059cbb0000000000000000000000000000000000000000000000000000000081526001600160a01b039091169063a9059cbb9061124f90869085906004016118fc565b602060405180830381600087803b15801561126957600080fd5b505af115801561127d573d6000803e3d6000fd5b505050506040513d601f19601f820116820180604052506112a1919081019061156c565b50611346565b6003546040517fa9059cbb0000000000000000000000000000000000000000000000000000000081526001600160a01b039091169063a9059cbb906112f290869086906004016118fc565b602060405180830381600087803b15801561130c57600080fd5b505af1158015611320573d6000803e3d6000fd5b505050506040513d601f19601f82011682018060405250611344919081019061156c565b505b505050565b60008282018183128015906113605750838112155b80611375575060008312801561137557508381125b6110f957604051600160e51b62461bcd028152600401610594906119f5565b6008546000906303b53800018210156113c35760095464e8d4a51000670c7d713b49da00005b04029050611171565b60085463076a7000018210156113ea5760095464e8d4a51000670853a0d2313c00006113ba565b600854630b1fa800018210156114115760095464e8d4a51000670429d069189e00006113ba565b506000611171565b60006110f983836040518060400160405280601e81526020017f536166654d6174683a207375627472616374696f6e206f766572666c6f770000815250611483565b6000828201838110156110f957604051600160e51b62461bcd028152600401610594906119e5565b600081848411156114aa57604051600160e51b62461bcd02815260040161059491906119b4565b505050900390565b604051806040016040528060008152602001600081525090565b60006110f98235611a60565b60006110f98235611a7a565b60006110f98251611a7a565b60006110f98235611a7f565b60006110f98235611a6b565b60006110f98251611a6b565b60006020828403121561152657600080fd5b6000610b5a84846114cc565b6000806040838503121561154557600080fd5b600061155185856114cc565b9250506020611562858286016114fc565b9150509250929050565b60006020828403121561157e57600080fd5b6000610b5a84846114e4565b60006020828403121561159c57600080fd5b6000610b5a84846114f0565b6000602082840312156115ba57600080fd5b6000610b5a8484611508565b600080604083850312156115d957600080fd5b60006115e585856114fc565b9250506020611562858286016114d8565b6000806040838503121561160957600080fd5b600061155185856114fc565b61161e81611a8a565b82525050565b61161e81611a60565b61161e81611a7f565b61161e81611a6b565b61161e81611a95565b600061165382611a53565b61165d8185611a57565b935061166d818560208601611aa0565b61167681611acc565b9093019392505050565b600061168d601383611a57565b7f6e6f74206d696e696e6720747265617375727900000000000000000000000000815260200192915050565b60006116c6602683611a57565b7f4f776e61626c653a206e6577206f776e657220697320746865207a65726f206181527f6464726573730000000000000000000000000000000000000000000000000000602082015260400192915050565b6000611725601b83611a57565b7f536166654d6174683a206164646974696f6e206f766572666c6f770000000000815260200192915050565b600061175e602183611a57565b7f5369676e6564536166654d6174683a206164646974696f6e206f766572666c6f81527f7700000000000000000000000000000000000000000000000000000000000000602082015260400192915050565b60006117bd602083611a57565b7f53616665436173743a2076616c7565206d75737420626520706f736974697665815260200192915050565b60006117f6602183611a57565b7f536166654d6174683a206d756c7469706c69636174696f6e206f766572666c6f81527f7700000000000000000000000000000000000000000000000000000000000000602082015260400192915050565b6000611855602083611a57565b7f4f776e61626c653a2063616c6c6572206973206e6f7420746865206f776e6572815260200192915050565b600061188e602483611a57565b7f5369676e6564536166654d6174683a207375627472616374696f6e206f76657281527f666c6f7700000000000000000000000000000000000000000000000000000000602082015260400192915050565b602081016109308284611624565b602081016109308284611615565b6040810161190a8285611624565b6110f96020830184611636565b60208101610930828461162d565b602081016109308284611636565b60a08101611941828861163f565b61194e6020830187611615565b61195b6040830186611624565b6119686060830185611636565b6119756080830184611636565b9695505050505050565b60a0810161198d828861163f565b61199a6020830187611624565b6119a76040830186611624565b611968606083018561163f565b602080825281016110f98184611648565b6020808252810161093081611680565b60208082528101610930816116b9565b6020808252810161093081611718565b6020808252810161093081611751565b60208082528101610930816117b0565b60208082528101610930816117e9565b6020808252810161093081611848565b6020808252810161093081611881565b6040810161190a8285611636565b5190565b90815260200190565b600061093082611a6e565b90565b6001600160a01b031690565b151590565b600061093082611a60565b600061093082611a7f565b600061093082611a6b565b60005b83811015611abb578181015183820152602001611aa3565b838111156113445750506000910152565b601f01601f19169056fea265627a7a7230582067610340d195579cc28e9d11398b1e0461e735c5a7df70268772668d5b21ac596c6578706572696d656e74616cf50037",
  "devdoc": {
    "methods": {
      "constructor": {
        "params": {
          "cla_": "The CLA token contract address.",
          "cls_": "The CLS token contract address.",
          "migrationEndBlock_": "Migration end block of masterChef. (must be same to masterChef's one)",
          "miningTreasury_": "Contract address of CLA treasury.",
          "rewarder_": "Contract address of Airdroper.",
          "startBlock_": "Start block of masterChef. (must be same to masterChef's one)"
        }
      },
      "deposit(address,uint256)": {
        "params": {
          "amount": "CLS token amount to deposit.",
          "user": "The receiver of `amount` deposit benefit."
        }
      },
      "harvest(address)": {
        "details": "Harvest proceeds for transaction sender to `to`.",
        "params": {
          "to": "Receiver of CLA rewards."
        }
      },
      "owner()": {
        "details": "Returns the address of the current owner."
      },
      "pendingCla(address)": {
        "params": {
          "user": "Address of user."
        },
        "return": "Pending CLA reward for a given user."
      },
      "renounceOwnership()": {
        "details": "Leaves the contract without owner. It will not be possible to call `onlyOwner` functions anymore. Can only be called by the current owner.     * NOTE: Renouncing ownership will leave the contract without an owner, thereby removing any functionality that is only available to the owner."
      },
      "setClsRewardRatio(uint256,bool)": {
        "params": {
          "clsRewardRatio_": "Cls reward ratio.",
          "withUpdate": "Update pool flag."
        }
      },
      "transferOwnership(address)": {
        "details": "Transfers ownership of the contract to a new account (`newOwner`). Can only be called by the current owner."
      },
      "withdraw(address,uint256)": {
        "params": {
          "amount": "CLS token amount to withdraw.",
          "user": "Receiver of the CLS tokens."
        }
      }
    },
    "title": "CLA MasterChef of CLS. distribute CLA tokens to CLS holders * References: * - https://github.com/sushiswap/sushiswap/blob/canary/contracts/MasterChefV2.sol"
  },
  "userdoc": {
    "methods": {
      "claPerBlock()": {
        "notice": "Number of tokens created per block."
      },
      "claPerBlocks(uint256,uint256)": {
        "notice": "Number of tokens created between the given _from to _to blocks."
      },
      "deposit(address,uint256)": {
        "notice": "Deposit CLS tokens."
      },
      "pendingCla(address)": {
        "notice": "View function to see pending CLA."
      },
      "setClsRewardRatio(uint256,bool)": {
        "notice": "Set cls reward ratio."
      },
      "setMiningTreasury(address)": {
        "notice": "Set MiningTreasury"
      },
      "setRewarder(address)": {
        "notice": "Set Rewarder (airdroper)"
      },
      "updatePool()": {
        "notice": "Update accumulated reward per block of the pool."
      },
      "withdraw(address,uint256)": {
        "notice": "Withdraw CLS tokens."
      }
    }
  }
}