{
  "address": "0xCF87f94fD8F6B6f0b479771F10dF672f99eADa63",
  "abi": [
    {
      "constant": true,
      "inputs": [],
      "name": "name",
      "outputs": [
        {
          "name": "",
          "type": "string"
        }
      ],
      "payable": false,
      "stateMutability": "view",
      "type": "function"
    },
    {
      "constant": false,
      "inputs": [
        {
          "name": "spender",
          "type": "address"
        },
        {
          "name": "amount",
          "type": "uint256"
        }
      ],
      "name": "approve",
      "outputs": [
        {
          "name": "",
          "type": "bool"
        }
      ],
      "payable": false,
      "stateMutability": "nonpayable",
      "type": "function"
    },
    {
      "constant": true,
      "inputs": [],
      "name": "totalSupply",
      "outputs": [
        {
          "name": "",
          "type": "uint256"
        }
      ],
      "payable": false,
      "stateMutability": "view",
      "type": "function"
    },
    {
      "constant": false,
      "inputs": [
        {
          "name": "sender",
          "type": "address"
        },
        {
          "name": "recipient",
          "type": "address"
        },
        {
          "name": "amount",
          "type": "uint256"
        }
      ],
      "name": "transferFrom",
      "outputs": [
        {
          "name": "",
          "type": "bool"
        }
      ],
      "payable": false,
      "stateMutability": "nonpayable",
      "type": "function"
    },
    {
      "constant": true,
      "inputs": [],
      "name": "decimals",
      "outputs": [
        {
          "name": "",
          "type": "uint8"
        }
      ],
      "payable": false,
      "stateMutability": "view",
      "type": "function"
    },
    {
      "constant": false,
      "inputs": [
        {
          "name": "spender",
          "type": "address"
        },
        {
          "name": "addedValue",
          "type": "uint256"
        }
      ],
      "name": "increaseAllowance",
      "outputs": [
        {
          "name": "",
          "type": "bool"
        }
      ],
      "payable": false,
      "stateMutability": "nonpayable",
      "type": "function"
    },
    {
      "constant": false,
      "inputs": [],
      "name": "unpause",
      "outputs": [],
      "payable": false,
      "stateMutability": "nonpayable",
      "type": "function"
    },
    {
      "constant": true,
      "inputs": [],
      "name": "paused",
      "outputs": [
        {
          "name": "",
          "type": "bool"
        }
      ],
      "payable": false,
      "stateMutability": "view",
      "type": "function"
    },
    {
      "constant": true,
      "inputs": [
        {
          "name": "account",
          "type": "address"
        }
      ],
      "name": "balanceOf",
      "outputs": [
        {
          "name": "",
          "type": "uint256"
        }
      ],
      "payable": false,
      "stateMutability": "view",
      "type": "function"
    },
    {
      "constant": false,
      "inputs": [],
      "name": "renounceOwnership",
      "outputs": [],
      "payable": false,
      "stateMutability": "nonpayable",
      "type": "function"
    },
    {
      "constant": false,
      "inputs": [],
      "name": "pause",
      "outputs": [],
      "payable": false,
      "stateMutability": "nonpayable",
      "type": "function"
    },
    {
      "constant": true,
      "inputs": [],
      "name": "owner",
      "outputs": [
        {
          "name": "",
          "type": "address"
        }
      ],
      "payable": false,
      "stateMutability": "view",
      "type": "function"
    },
    {
      "constant": true,
      "inputs": [],
      "name": "symbol",
      "outputs": [
        {
          "name": "",
          "type": "string"
        }
      ],
      "payable": false,
      "stateMutability": "view",
      "type": "function"
    },
    {
      "constant": false,
      "inputs": [
        {
          "name": "spender",
          "type": "address"
        },
        {
          "name": "subtractedValue",
          "type": "uint256"
        }
      ],
      "name": "decreaseAllowance",
      "outputs": [
        {
          "name": "",
          "type": "bool"
        }
      ],
      "payable": false,
      "stateMutability": "nonpayable",
      "type": "function"
    },
    {
      "constant": false,
      "inputs": [
        {
          "name": "recipient",
          "type": "address"
        },
        {
          "name": "amount",
          "type": "uint256"
        }
      ],
      "name": "transfer",
      "outputs": [
        {
          "name": "",
          "type": "bool"
        }
      ],
      "payable": false,
      "stateMutability": "nonpayable",
      "type": "function"
    },
    {
      "constant": true,
      "inputs": [
        {
          "name": "owner",
          "type": "address"
        },
        {
          "name": "spender",
          "type": "address"
        }
      ],
      "name": "allowance",
      "outputs": [
        {
          "name": "",
          "type": "uint256"
        }
      ],
      "payable": false,
      "stateMutability": "view",
      "type": "function"
    },
    {
      "constant": false,
      "inputs": [
        {
          "name": "newOwner",
          "type": "address"
        }
      ],
      "name": "transferOwnership",
      "outputs": [],
      "payable": false,
      "stateMutability": "nonpayable",
      "type": "function"
    },
    {
      "inputs": [
        {
          "name": "miningTreasury",
          "type": "address"
        },
        {
          "name": "treasury",
          "type": "address"
        }
      ],
      "payable": false,
      "stateMutability": "nonpayable",
      "type": "constructor"
    },
    {
      "anonymous": false,
      "inputs": [],
      "name": "Paused",
      "type": "event"
    },
    {
      "anonymous": false,
      "inputs": [],
      "name": "Unpaused",
      "type": "event"
    },
    {
      "anonymous": false,
      "inputs": [
        {
          "indexed": true,
          "name": "previousOwner",
          "type": "address"
        },
        {
          "indexed": true,
          "name": "newOwner",
          "type": "address"
        }
      ],
      "name": "OwnershipTransferred",
      "type": "event"
    },
    {
      "anonymous": false,
      "inputs": [
        {
          "indexed": true,
          "name": "from",
          "type": "address"
        },
        {
          "indexed": true,
          "name": "to",
          "type": "address"
        },
        {
          "indexed": false,
          "name": "value",
          "type": "uint256"
        }
      ],
      "name": "Transfer",
      "type": "event"
    },
    {
      "anonymous": false,
      "inputs": [
        {
          "indexed": true,
          "name": "owner",
          "type": "address"
        },
        {
          "indexed": true,
          "name": "spender",
          "type": "address"
        },
        {
          "indexed": false,
          "name": "value",
          "type": "uint256"
        }
      ],
      "name": "Approval",
      "type": "event"
    }
  ],
  "transactionHash": "0x7e9223642e4f414fbddaffdfa8fdf81329e1c001d496fb501f759742f8a9bf5a",
  "args": [
    "0x54FB37b0D56D837BC021d89f3cd833dE87BAf09e",
    "0x2aFE4695a8eF6bbE21459E7B5AbC31ad1364D2dC"
  ],
  "solcInputHash": "361661ccd7e0f10c6c6321a0fe32ce9d",
  "bytecode": "0x60806040523480156200001157600080fd5b50604051604080620014ec833981018060405260408110156200003357600080fd5b508051602091820151604080518082018252600981527f436c61696d537761700000000000000000000000000000000000000000000000818601908152825180840190935260038084527f434c410000000000000000000000000000000000000000000000000000000000968401969096528151949593949193620000bb92909190620004d7565b508051620000d1906004906020840190620004d7565b505060058054601260ff1990911617610100600160a81b031916610100339081029190911790915560405190915081906000907f8be0079c531659141344cd1fd0a4f28419497f9722a3daafe3b4186f6b6457e0908290a350604080517f61cc77d200000000000000000000000000000000000000000000000000000000815230600482015290516001600160a01b038316916361cc77d291602480830192600092919082900301818387803b1580156200018b57600080fd5b505af1158015620001a0573d6000803e3d6000fd5b5050604080517f61cc77d200000000000000000000000000000000000000000000000000000000815230600482015290516001600160a01b03861693506361cc77d29250602480830192600092919082900301818387803b1580156200020557600080fd5b505af11580156200021a573d6000803e3d6000fd5b505050506200024982600a6a9a5f2b4fd876f5a0000000816200023957fe5b046006026200026f60201b60201c565b62000267816a3dbfaaecbcfc62400000006200026f602090811b901c565b50506200057c565b6001600160a01b038216620002e557604080517f08c379a000000000000000000000000000000000000000000000000000000000815260206004820152601f60248201527f45524332303a206d696e7420746f20746865207a65726f206164647265737300604482015290519081900360640190fd5b620002f960008383620003b260201b60201c565b62000315816002546200045b60201b62000d3c1790919060201c565b6002556001600160a01b038216600090815260208181526040909120546200034891839062000d3c6200045b821b17901c565b6001600160a01b0383166000818152602081815260408083209490945583518581529351929391927fddf252ad1be2c89b69c2b068fc378daa952ba7f163c4a11628f55a4df523b3ef9281900390910190a3620003ae600083836200045660201b60201c565b5050565b620003ca8383836200045660201b62000c9d1760201c565b6005547501000000000000000000000000000000000000000000900460ff16156200045657604080517f08c379a000000000000000000000000000000000000000000000000000000000815260206004820152600660248201527f7061757365640000000000000000000000000000000000000000000000000000604482015290519081900360640190fd5b505050565b600082820183811015620004d057604080517f08c379a000000000000000000000000000000000000000000000000000000000815260206004820152601b60248201527f536166654d6174683a206164646974696f6e206f766572666c6f770000000000604482015290519081900360640190fd5b9392505050565b828054600181600116156101000203166002900490600052602060002090601f016020900481019282601f106200051a57805160ff19168380011785556200054a565b828001600101855582156200054a579182015b828111156200054a5782518255916020019190600101906200052d565b50620005589291506200055c565b5090565b6200057991905b8082111562000558576000815560010162000563565b90565b610f60806200058c6000396000f3fe608060405234801561001057600080fd5b506004361061011b5760003560e01c806370a08231116100b257806395d89b4111610081578063a9059cbb11610066578063a9059cbb14610317578063dd62ed3e14610343578063f2fde38b146103715761011b565b806395d89b41146102e3578063a457c2d7146102eb5761011b565b806370a0823114610289578063715018a6146102af5780638456cb59146102b75780638da5cb5b146102bf5761011b565b8063313ce567116100ee578063313ce5671461022d578063395093511461024b5780633f4ba83a146102775780635c975abb146102815761011b565b806306fdde0314610120578063095ea7b31461019d57806318160ddd146101dd57806323b872dd146101f7575b600080fd5b610128610397565b6040805160208082528351818301528351919283929083019185019080838360005b8381101561016257818101518382015260200161014a565b50505050905090810190601f16801561018f5780820380516001836020036101000a031916815260200191505b509250505060405180910390f35b6101c9600480360360408110156101b357600080fd5b506001600160a01b03813516906020013561042d565b604080519115158252519081900360200190f35b6101e5610443565b60408051918252519081900360200190f35b6101c96004803603606081101561020d57600080fd5b506001600160a01b03813581169160208101359091169060400135610449565b6102356104b8565b6040805160ff9092168252519081900360200190f35b6101c96004803603604081101561026157600080fd5b506001600160a01b0381351690602001356104c1565b61027f6104fd565b005b6101c961060f565b6101e56004803603602081101561029f57600080fd5b50356001600160a01b031661061f565b61027f61063a565b61027f6106fe565b6102c7610817565b604080516001600160a01b039092168252519081900360200190f35b61012861082b565b6101c96004803603604081101561030157600080fd5b506001600160a01b03813516906020013561088c565b6101c96004803603604081101561032d57600080fd5b506001600160a01b0381351690602001356108e1565b6101e56004803603604081101561035957600080fd5b506001600160a01b03813581169160200135166108ee565b61027f6004803603602081101561038757600080fd5b50356001600160a01b0316610919565b60038054604080516020601f60026000196101006001881615020190951694909404938401819004810282018101909252828152606093909290918301828280156104235780601f106103f857610100808354040283529160200191610423565b820191906000526020600020905b81548152906001019060200180831161040657829003601f168201915b5050505050905090565b600061043a338484610a3c565b50600192915050565b60025490565b6000610456848484610b2e565b6104ae84336104a985604051806060016040528060288152602001610e9f602891396001600160a01b038a166000908152600160209081526040808320338452909152902054919063ffffffff610ca216565b610a3c565b5060019392505050565b60055460ff1690565b3360008181526001602090815260408083206001600160a01b0387168452909152812054909161043a9185906104a9908663ffffffff610d3c16565b33610506610817565b6001600160a01b0316146105645760408051600160e51b62461bcd02815260206004820181905260248201527f4f776e61626c653a2063616c6c6572206973206e6f7420746865206f776e6572604482015290519081900360640190fd5b600554600160a81b900460ff166105c55760408051600160e51b62461bcd02815260206004820152601060248201527f616c726561647920756e70617573656400000000000000000000000000000000604482015290519081900360640190fd5b6005805475ff000000000000000000000000000000000000000000191690556040517fa45f47fdea8a1efdd9029a5691c7f759c32b7c698632b563573e155625d1693390600090a1565b600554600160a81b900460ff1681565b6001600160a01b031660009081526020819052604090205490565b33610643610817565b6001600160a01b0316146106a15760408051600160e51b62461bcd02815260206004820181905260248201527f4f776e61626c653a2063616c6c6572206973206e6f7420746865206f776e6572604482015290519081900360640190fd5b60055460405160009161010090046001600160a01b0316907f8be0079c531659141344cd1fd0a4f28419497f9722a3daafe3b4186f6b6457e0908390a36005805474ffffffffffffffffffffffffffffffffffffffff0019169055565b33610707610817565b6001600160a01b0316146107655760408051600160e51b62461bcd02815260206004820181905260248201527f4f776e61626c653a2063616c6c6572206973206e6f7420746865206f776e6572604482015290519081900360640190fd5b600554600160a81b900460ff16156107c75760408051600160e51b62461bcd02815260206004820152600e60248201527f616c726561647920706175736564000000000000000000000000000000000000604482015290519081900360640190fd5b6005805475ff0000000000000000000000000000000000000000001916600160a81b1790556040517f9e87fac88ff661f02d44f95383c817fece4bce600a3dab7a54406878b965e75290600090a1565b60055461010090046001600160a01b031690565b60048054604080516020601f60026000196101006001881615020190951694909404938401819004810282018101909252828152606093909290918301828280156104235780601f106103f857610100808354040283529160200191610423565b600061043a33846104a985604051806060016040528060258152602001610f10602591393360009081526001602090815260408083206001600160a01b038d168452909152902054919063ffffffff610ca216565b600061043a338484610b2e565b6001600160a01b03918216600090815260016020908152604080832093909416825291909152205490565b33610922610817565b6001600160a01b0316146109805760408051600160e51b62461bcd02815260206004820181905260248201527f4f776e61626c653a2063616c6c6572206973206e6f7420746865206f776e6572604482015290519081900360640190fd5b6001600160a01b0381166109c857604051600160e51b62461bcd028152600401808060200182810382526026815260200180610e316026913960400191505060405180910390fd5b6005546040516001600160a01b0380841692610100900416907f8be0079c531659141344cd1fd0a4f28419497f9722a3daafe3b4186f6b6457e090600090a3600580546001600160a01b039092166101000274ffffffffffffffffffffffffffffffffffffffff0019909216919091179055565b6001600160a01b038316610a8457604051600160e51b62461bcd028152600401808060200182810382526024815260200180610eec6024913960400191505060405180910390fd5b6001600160a01b038216610acc57604051600160e51b62461bcd028152600401808060200182810382526022815260200180610e576022913960400191505060405180910390fd5b6001600160a01b03808416600081815260016020908152604080832094871680845294825291829020859055815185815291517f8c5be1e5ebec7d5bd14f71427d1e84f3dd0314c0f7b2291e5b200ac8c7c3b9259281900390910190a3505050565b6001600160a01b038316610b7657604051600160e51b62461bcd028152600401808060200182810382526025815260200180610ec76025913960400191505060405180910390fd5b6001600160a01b038216610bbe57604051600160e51b62461bcd028152600401808060200182810382526023815260200180610e0e6023913960400191505060405180910390fd5b610bc9838383610da0565b610c0c81604051806060016040528060268152602001610e79602691396001600160a01b038616600090815260208190526040902054919063ffffffff610ca216565b6001600160a01b038085166000908152602081905260408082209390935590841681522054610c41908263ffffffff610d3c16565b6001600160a01b038084166000818152602081815260409182902094909455805185815290519193928716927fddf252ad1be2c89b69c2b068fc378daa952ba7f163c4a11628f55a4df523b3ef92918290030190a3610c9d8383835b505050565b60008184841115610d3457604051600160e51b62461bcd0281526004018080602001828103825283818151815260200191508051906020019080838360005b83811015610cf9578181015183820152602001610ce1565b50505050905090810190601f168015610d265780820380516001836020036101000a031916815260200191505b509250505060405180910390fd5b505050900390565b600082820183811015610d995760408051600160e51b62461bcd02815260206004820152601b60248201527f536166654d6174683a206164646974696f6e206f766572666c6f770000000000604482015290519081900360640190fd5b9392505050565b610dab838383610c9d565b600554600160a81b900460ff1615610c9d5760408051600160e51b62461bcd02815260206004820152600660248201527f7061757365640000000000000000000000000000000000000000000000000000604482015290519081900360640190fdfe45524332303a207472616e7366657220746f20746865207a65726f20616464726573734f776e61626c653a206e6577206f776e657220697320746865207a65726f206164647265737345524332303a20617070726f766520746f20746865207a65726f206164647265737345524332303a207472616e7366657220616d6f756e7420657863656564732062616c616e636545524332303a207472616e7366657220616d6f756e74206578636565647320616c6c6f77616e636545524332303a207472616e736665722066726f6d20746865207a65726f206164647265737345524332303a20617070726f76652066726f6d20746865207a65726f206164647265737345524332303a2064656372656173656420616c6c6f77616e63652062656c6f77207a65726fa165627a7a723058207f254396c31d2bd2001457381e102d7124eb65ef1dc701459428ff98d097ea1d0029",
  "devdoc": {
    "methods": {
      "allowance(address,address)": {
        "details": "See {IERC20-allowance}."
      },
      "approve(address,uint256)": {
        "details": "See {IERC20-approve}.     * Requirements:     * - `spender` cannot be the zero address."
      },
      "balanceOf(address)": {
        "details": "See {IERC20-balanceOf}."
      },
      "decimals()": {
        "details": "Returns the number of decimals used to get its user representation. For example, if `decimals` equals `2`, a balance of `505` tokens should be displayed to a user as `5,05` (`505 / 10 ** 2`).     * Tokens usually opt for a value of 18, imitating the relationship between Ether and Wei. This is the value {ERC20} uses, unless {_setupDecimals} is called.     * NOTE: This information is only used for _display_ purposes: it in no way affects any of the arithmetic of the contract, including {IERC20-balanceOf} and {IERC20-transfer}."
      },
      "decreaseAllowance(address,uint256)": {
        "details": "Atomically decreases the allowance granted to `spender` by the caller.     * This is an alternative to {approve} that can be used as a mitigation for problems described in {IERC20-approve}.     * Emits an {Approval} event indicating the updated allowance.     * Requirements:     * - `spender` cannot be the zero address. - `spender` must have allowance for the caller of at least `subtractedValue`."
      },
      "increaseAllowance(address,uint256)": {
        "details": "Atomically increases the allowance granted to `spender` by the caller.     * This is an alternative to {approve} that can be used as a mitigation for problems described in {IERC20-approve}.     * Emits an {Approval} event indicating the updated allowance.     * Requirements:     * - `spender` cannot be the zero address."
      },
      "name()": {
        "details": "Returns the name of the token."
      },
      "owner()": {
        "details": "Returns the address of the current owner."
      },
      "pause()": {
        "details": "Triggers stopped state.     * Requirements:     * - The contract must not be paused."
      },
      "renounceOwnership()": {
        "details": "Leaves the contract without owner. It will not be possible to call `onlyOwner` functions anymore. Can only be called by the current owner.     * NOTE: Renouncing ownership will leave the contract without an owner, thereby removing any functionality that is only available to the owner."
      },
      "symbol()": {
        "details": "Returns the symbol of the token, usually a shorter version of the name."
      },
      "totalSupply()": {
        "details": "See {IERC20-totalSupply}."
      },
      "transfer(address,uint256)": {
        "details": "See {IERC20-transfer}.     * Requirements:     * - `recipient` cannot be the zero address. - the caller must have a balance of at least `amount`."
      },
      "transferFrom(address,address,uint256)": {
        "details": "See {IERC20-transferFrom}.     * Emits an {Approval} event indicating the updated allowance. This is not required by the EIP. See the note at the beginning of {ERC20}.     * Requirements:     * - `sender` and `recipient` cannot be the zero address. - `sender` must have a balance of at least `amount`. - the caller must have allowance for ``sender``'s tokens of at least `amount`."
      },
      "transferOwnership(address)": {
        "details": "Transfers ownership of the contract to a new account (`newOwner`). Can only be called by the current owner."
      },
      "unpause()": {
        "details": "Returns to normal state.     * Requirements:     * - The contract must be paused."
      }
    },
    "title": "CLA token. No delegation thru signing. * References: * - https://github.com/sushiswap/sushiswap/blob/master/contracts/SushiToken.sol"
  },
  "userdoc": {
    "methods": {
      "constructor": "Creates `TOTAL_AMOUNT` token to `_treasury`. Must only be called by the owner (MasterChef)."
    }
  }
}