{
  "address": "0x02703E13b5D3d3056AC9321983B44A2cc065bB22",
  "abi": [
    {
      "constant": true,
      "inputs": [],
      "name": "poolLength",
      "outputs": [
        {
          "name": "pools",
          "type": "uint256"
        }
      ],
      "payable": false,
      "stateMutability": "view",
      "type": "function"
    },
    {
      "constant": false,
      "inputs": [
        {
          "name": "pId",
          "type": "uint256"
        },
        {
          "name": "amount",
          "type": "uint256"
        },
        {
          "name": "to",
          "type": "address"
        }
      ],
      "name": "withdraw",
      "outputs": [],
      "payable": false,
      "stateMutability": "nonpayable",
      "type": "function"
    },
    {
      "constant": true,
      "inputs": [
        {
          "name": "",
          "type": "uint256"
        }
      ],
      "name": "poolInfo",
      "outputs": [
        {
          "name": "accClaPerShare",
          "type": "uint256"
        },
        {
          "name": "lastRewardBlock",
          "type": "uint256"
        },
        {
          "name": "allocPoint",
          "type": "uint256"
        }
      ],
      "payable": false,
      "stateMutability": "view",
      "type": "function"
    },
    {
      "constant": true,
      "inputs": [],
      "name": "totalAllocPoint",
      "outputs": [
        {
          "name": "",
          "type": "uint256"
        }
      ],
      "payable": false,
      "stateMutability": "view",
      "type": "function"
    },
    {
      "constant": false,
      "inputs": [
        {
          "name": "pId",
          "type": "uint256"
        },
        {
          "name": "to",
          "type": "address"
        }
      ],
      "name": "harvest",
      "outputs": [],
      "payable": false,
      "stateMutability": "nonpayable",
      "type": "function"
    },
    {
      "constant": false,
      "inputs": [
        {
          "name": "migrator_",
          "type": "address"
        }
      ],
      "name": "setMigrator",
      "outputs": [],
      "payable": false,
      "stateMutability": "nonpayable",
      "type": "function"
    },
    {
      "constant": true,
      "inputs": [
        {
          "name": "",
          "type": "uint256"
        }
      ],
      "name": "migrationAccClaPerShare",
      "outputs": [
        {
          "name": "",
          "type": "uint256"
        }
      ],
      "payable": false,
      "stateMutability": "view",
      "type": "function"
    },
    {
      "constant": true,
      "inputs": [],
      "name": "migrationEndBlock",
      "outputs": [
        {
          "name": "",
          "type": "uint256"
        }
      ],
      "payable": false,
      "stateMutability": "view",
      "type": "function"
    },
    {
      "constant": false,
      "inputs": [
        {
          "name": "cls_",
          "type": "address"
        }
      ],
      "name": "setCls",
      "outputs": [],
      "payable": false,
      "stateMutability": "nonpayable",
      "type": "function"
    },
    {
      "constant": false,
      "inputs": [
        {
          "name": "pId",
          "type": "uint256"
        },
        {
          "name": "to",
          "type": "address"
        }
      ],
      "name": "emergencyWithdraw",
      "outputs": [],
      "payable": false,
      "stateMutability": "nonpayable",
      "type": "function"
    },
    {
      "constant": false,
      "inputs": [
        {
          "name": "pId",
          "type": "uint256"
        },
        {
          "name": "allocPoint",
          "type": "uint256"
        },
        {
          "name": "rewarder_",
          "type": "address"
        },
        {
          "name": "overwrite",
          "type": "bool"
        },
        {
          "name": "withUpdate",
          "type": "bool"
        }
      ],
      "name": "set",
      "outputs": [],
      "payable": false,
      "stateMutability": "nonpayable",
      "type": "function"
    },
    {
      "constant": true,
      "inputs": [],
      "name": "migrationPoolLength",
      "outputs": [
        {
          "name": "",
          "type": "uint8"
        }
      ],
      "payable": false,
      "stateMutability": "view",
      "type": "function"
    },
    {
      "constant": true,
      "inputs": [],
      "name": "multiple",
      "outputs": [
        {
          "name": "",
          "type": "address"
        }
      ],
      "payable": false,
      "stateMutability": "view",
      "type": "function"
    },
    {
      "constant": false,
      "inputs": [
        {
          "name": "pId",
          "type": "uint256"
        }
      ],
      "name": "migrate",
      "outputs": [],
      "payable": false,
      "stateMutability": "nonpayable",
      "type": "function"
    },
    {
      "constant": true,
      "inputs": [],
      "name": "startBlock",
      "outputs": [
        {
          "name": "",
          "type": "uint256"
        }
      ],
      "payable": false,
      "stateMutability": "view",
      "type": "function"
    },
    {
      "constant": false,
      "inputs": [
        {
          "name": "pId",
          "type": "uint256"
        }
      ],
      "name": "updatePool",
      "outputs": [
        {
          "components": [
            {
              "name": "accClaPerShare",
              "type": "uint256"
            },
            {
              "name": "lastRewardBlock",
              "type": "uint256"
            },
            {
              "name": "allocPoint",
              "type": "uint256"
            }
          ],
          "name": "pool",
          "type": "tuple"
        }
      ],
      "payable": false,
      "stateMutability": "nonpayable",
      "type": "function"
    },
    {
      "constant": true,
      "inputs": [
        {
          "name": "from",
          "type": "uint256"
        },
        {
          "name": "to",
          "type": "uint256"
        }
      ],
      "name": "claPerBlocks",
      "outputs": [
        {
          "name": "",
          "type": "uint256"
        }
      ],
      "payable": false,
      "stateMutability": "view",
      "type": "function"
    },
    {
      "constant": false,
      "inputs": [
        {
          "name": "lpRewardRatio_",
          "type": "uint256"
        },
        {
          "name": "withUpdate",
          "type": "bool"
        }
      ],
      "name": "setLpRewardRatio",
      "outputs": [],
      "payable": false,
      "stateMutability": "nonpayable",
      "type": "function"
    },
    {
      "constant": false,
      "inputs": [
        {
          "name": "pIds",
          "type": "uint256[]"
        }
      ],
      "name": "massUpdatePools",
      "outputs": [],
      "payable": false,
      "stateMutability": "nonpayable",
      "type": "function"
    },
    {
      "constant": true,
      "inputs": [],
      "name": "cla",
      "outputs": [
        {
          "name": "",
          "type": "address"
        }
      ],
      "payable": false,
      "stateMutability": "view",
      "type": "function"
    },
    {
      "constant": false,
      "inputs": [],
      "name": "massUpdatePools",
      "outputs": [],
      "payable": false,
      "stateMutability": "nonpayable",
      "type": "function"
    },
    {
      "constant": false,
      "inputs": [
        {
          "name": "multiple_",
          "type": "address"
        }
      ],
      "name": "setMultiple",
      "outputs": [],
      "payable": false,
      "stateMutability": "nonpayable",
      "type": "function"
    },
    {
      "constant": false,
      "inputs": [],
      "name": "renounceOwnership",
      "outputs": [],
      "payable": false,
      "stateMutability": "nonpayable",
      "type": "function"
    },
    {
      "constant": true,
      "inputs": [
        {
          "name": "",
          "type": "uint256"
        }
      ],
      "name": "lpToken",
      "outputs": [
        {
          "name": "",
          "type": "address"
        }
      ],
      "payable": false,
      "stateMutability": "view",
      "type": "function"
    },
    {
      "constant": true,
      "inputs": [],
      "name": "migrator",
      "outputs": [
        {
          "name": "",
          "type": "address"
        }
      ],
      "payable": false,
      "stateMutability": "view",
      "type": "function"
    },
    {
      "constant": true,
      "inputs": [
        {
          "name": "pId",
          "type": "uint256"
        },
        {
          "name": "user_",
          "type": "address"
        }
      ],
      "name": "pendingMigrationCla",
      "outputs": [
        {
          "name": "pending",
          "type": "uint256"
        }
      ],
      "payable": false,
      "stateMutability": "view",
      "type": "function"
    },
    {
      "constant": true,
      "inputs": [],
      "name": "owner",
      "outputs": [
        {
          "name": "",
          "type": "address"
        }
      ],
      "payable": false,
      "stateMutability": "view",
      "type": "function"
    },
    {
      "constant": false,
      "inputs": [
        {
          "name": "pId",
          "type": "uint256"
        },
        {
          "name": "amount",
          "type": "uint256"
        },
        {
          "name": "to",
          "type": "address"
        }
      ],
      "name": "deposit",
      "outputs": [],
      "payable": false,
      "stateMutability": "nonpayable",
      "type": "function"
    },
    {
      "constant": true,
      "inputs": [],
      "name": "cls",
      "outputs": [
        {
          "name": "",
          "type": "address"
        }
      ],
      "payable": false,
      "stateMutability": "view",
      "type": "function"
    },
    {
      "constant": true,
      "inputs": [
        {
          "name": "",
          "type": "uint256"
        },
        {
          "name": "",
          "type": "address"
        }
      ],
      "name": "userInfo",
      "outputs": [
        {
          "name": "amount",
          "type": "uint256"
        },
        {
          "name": "rewardDebt",
          "type": "int256"
        },
        {
          "name": "migrated",
          "type": "bool"
        }
      ],
      "payable": false,
      "stateMutability": "view",
      "type": "function"
    },
    {
      "constant": false,
      "inputs": [
        {
          "name": "length",
          "type": "uint8"
        }
      ],
      "name": "setMigrationPoolLength",
      "outputs": [],
      "payable": false,
      "stateMutability": "nonpayable",
      "type": "function"
    },
    {
      "constant": true,
      "inputs": [],
      "name": "miningTreasury",
      "outputs": [
        {
          "name": "",
          "type": "address"
        }
      ],
      "payable": false,
      "stateMutability": "view",
      "type": "function"
    },
    {
      "constant": true,
      "inputs": [],
      "name": "claPerBlock",
      "outputs": [
        {
          "name": "",
          "type": "uint256"
        }
      ],
      "payable": false,
      "stateMutability": "view",
      "type": "function"
    },
    {
      "constant": false,
      "inputs": [
        {
          "name": "to",
          "type": "address"
        }
      ],
      "name": "withdrawKSP",
      "outputs": [],
      "payable": false,
      "stateMutability": "nonpayable",
      "type": "function"
    },
    {
      "constant": true,
      "inputs": [
        {
          "name": "",
          "type": "uint256"
        }
      ],
      "name": "rewarder",
      "outputs": [
        {
          "name": "",
          "type": "address"
        }
      ],
      "payable": false,
      "stateMutability": "view",
      "type": "function"
    },
    {
      "constant": false,
      "inputs": [
        {
          "name": "allocPoint",
          "type": "uint256"
        },
        {
          "name": "lpToken_",
          "type": "address"
        },
        {
          "name": "rewarder_",
          "type": "address"
        },
        {
          "name": "withUpdate",
          "type": "bool"
        }
      ],
      "name": "add",
      "outputs": [],
      "payable": false,
      "stateMutability": "nonpayable",
      "type": "function"
    },
    {
      "constant": false,
      "inputs": [
        {
          "name": "pId",
          "type": "uint256"
        },
        {
          "name": "to",
          "type": "address"
        }
      ],
      "name": "migrationHarvest",
      "outputs": [],
      "payable": false,
      "stateMutability": "nonpayable",
      "type": "function"
    },
    {
      "constant": false,
      "inputs": [
        {
          "name": "pId",
          "type": "uint256"
        },
        {
          "name": "amount",
          "type": "uint256"
        },
        {
          "name": "to",
          "type": "address"
        }
      ],
      "name": "withdrawAndHarvest",
      "outputs": [],
      "payable": false,
      "stateMutability": "nonpayable",
      "type": "function"
    },
    {
      "constant": false,
      "inputs": [
        {
          "name": "to",
          "type": "address"
        }
      ],
      "name": "migrationHarvestAll",
      "outputs": [],
      "payable": false,
      "stateMutability": "nonpayable",
      "type": "function"
    },
    {
      "constant": true,
      "inputs": [
        {
          "name": "",
          "type": "uint256"
        },
        {
          "name": "",
          "type": "address"
        }
      ],
      "name": "userMigrationInfo",
      "outputs": [
        {
          "name": "amount",
          "type": "uint256"
        },
        {
          "name": "amountSent",
          "type": "uint256"
        }
      ],
      "payable": false,
      "stateMutability": "view",
      "type": "function"
    },
    {
      "constant": false,
      "inputs": [
        {
          "name": "newOwner",
          "type": "address"
        }
      ],
      "name": "transferOwnership",
      "outputs": [],
      "payable": false,
      "stateMutability": "nonpayable",
      "type": "function"
    },
    {
      "constant": true,
      "inputs": [],
      "name": "lpRewardRatio",
      "outputs": [
        {
          "name": "",
          "type": "uint256"
        }
      ],
      "payable": false,
      "stateMutability": "view",
      "type": "function"
    },
    {
      "constant": true,
      "inputs": [
        {
          "name": "pId",
          "type": "uint256"
        },
        {
          "name": "user_",
          "type": "address"
        }
      ],
      "name": "pendingCla",
      "outputs": [
        {
          "name": "pending",
          "type": "uint256"
        }
      ],
      "payable": false,
      "stateMutability": "view",
      "type": "function"
    },
    {
      "inputs": [
        {
          "name": "cla_",
          "type": "address"
        },
        {
          "name": "miningTreasury_",
          "type": "address"
        },
        {
          "name": "startBlock_",
          "type": "uint256"
        },
        {
          "name": "migrationEndBlock_",
          "type": "uint256"
        }
      ],
      "payable": false,
      "stateMutability": "nonpayable",
      "type": "constructor"
    },
    {
      "anonymous": false,
      "inputs": [
        {
          "indexed": true,
          "name": "user",
          "type": "address"
        },
        {
          "indexed": true,
          "name": "pId",
          "type": "uint256"
        },
        {
          "indexed": false,
          "name": "amount",
          "type": "uint256"
        },
        {
          "indexed": true,
          "name": "to",
          "type": "address"
        }
      ],
      "name": "Deposit",
      "type": "event"
    },
    {
      "anonymous": false,
      "inputs": [
        {
          "indexed": true,
          "name": "user",
          "type": "address"
        },
        {
          "indexed": true,
          "name": "pId",
          "type": "uint256"
        },
        {
          "indexed": false,
          "name": "amount",
          "type": "uint256"
        },
        {
          "indexed": true,
          "name": "to",
          "type": "address"
        }
      ],
      "name": "Withdraw",
      "type": "event"
    },
    {
      "anonymous": false,
      "inputs": [
        {
          "indexed": true,
          "name": "user",
          "type": "address"
        },
        {
          "indexed": true,
          "name": "pId",
          "type": "uint256"
        },
        {
          "indexed": false,
          "name": "amount",
          "type": "uint256"
        },
        {
          "indexed": true,
          "name": "to",
          "type": "address"
        }
      ],
      "name": "EmergencyWithdraw",
      "type": "event"
    },
    {
      "anonymous": false,
      "inputs": [
        {
          "indexed": true,
          "name": "user",
          "type": "address"
        },
        {
          "indexed": true,
          "name": "pId",
          "type": "uint256"
        },
        {
          "indexed": false,
          "name": "amount",
          "type": "uint256"
        }
      ],
      "name": "Harvest",
      "type": "event"
    },
    {
      "anonymous": false,
      "inputs": [
        {
          "indexed": true,
          "name": "pId",
          "type": "uint256"
        },
        {
          "indexed": false,
          "name": "allocPoint",
          "type": "uint256"
        },
        {
          "indexed": true,
          "name": "lpToken",
          "type": "address"
        },
        {
          "indexed": true,
          "name": "rewarder",
          "type": "address"
        }
      ],
      "name": "PoolAddition",
      "type": "event"
    },
    {
      "anonymous": false,
      "inputs": [
        {
          "indexed": true,
          "name": "pId",
          "type": "uint256"
        },
        {
          "indexed": false,
          "name": "allocPoint",
          "type": "uint256"
        },
        {
          "indexed": true,
          "name": "rewarder",
          "type": "address"
        },
        {
          "indexed": false,
          "name": "overwrite",
          "type": "bool"
        }
      ],
      "name": "SetPool",
      "type": "event"
    },
    {
      "anonymous": false,
      "inputs": [
        {
          "indexed": true,
          "name": "pId",
          "type": "uint256"
        },
        {
          "indexed": false,
          "name": "lastRewardBlock",
          "type": "uint256"
        },
        {
          "indexed": false,
          "name": "lpSupply",
          "type": "uint256"
        },
        {
          "indexed": false,
          "name": "accClaPerShare",
          "type": "uint256"
        }
      ],
      "name": "UpdatePool",
      "type": "event"
    },
    {
      "anonymous": false,
      "inputs": [
        {
          "indexed": false,
          "name": "lpRewardRatio",
          "type": "uint256"
        }
      ],
      "name": "UpdateLpRewardRatio",
      "type": "event"
    },
    {
      "anonymous": false,
      "inputs": [
        {
          "indexed": true,
          "name": "previousOwner",
          "type": "address"
        },
        {
          "indexed": true,
          "name": "newOwner",
          "type": "address"
        }
      ],
      "name": "OwnershipTransferred",
      "type": "event"
    }
  ],
  "transactionHash": "0x4e09e2db3c4c05a010c9fe2e93a68e5d2ec4f54df53697afe0ed0e91549d1c9a",
  "args": [
    "0xCF87f94fD8F6B6f0b479771F10dF672f99eADa63",
    "0x54FB37b0D56D837BC021d89f3cd833dE87BAf09e",
    "77915200",
    "79124800"
  ],
  "solcInputHash": "b615c9b04a75f7691b77be00ac907028",
  "bytecode": "0x60806040523480156200001157600080fd5b5060405160808062003b758339810180604052620000339190810190620000d6565b600080546001600160a01b031916339081178255604051909182917f8be0079c531659141344cd1fd0a4f28419497f9722a3daafe3b4186f6b6457e0908290a350600180546001600160a01b039586166001600160a01b0319918216179091556004805494909516931692909217909255600f91909155600d556200016f565b6000620000c1825162000153565b9392505050565b6000620000c182516200016c565b60008060008060808587031215620000ed57600080fd5b6000620000fb8787620000b3565b94505060206200010e87828801620000b3565b93505060406200012187828801620000c8565b92505060606200013487828801620000c8565b91505092959194509250565b60006200014d8262000160565b92915050565b60006200014d8262000140565b6001600160a01b031690565b90565b6139f6806200017f6000396000f3fe608060405234801561001057600080fd5b50600436106102e95760003560e01c8063632ff7e511610191578063bb68742e116100e3578063d1abb90711610097578063f2fde38b11610071578063f2fde38b146105c4578063f8ca87f1146105d7578063fcb8d60a146105df576102e9565b8063d1abb9071461057d578063eec237df14610590578063ef1d7542146105a3576102e9565b8063c346253d116100c8578063c346253d14610544578063c71b4b4314610557578063ce50cb161461056a576102e9565b8063bb68742e14610529578063bcd0aca614610531576102e9565b80638da5cb5b1161014557806393f1a40b1161011f57806393f1a40b146104ec5780639537bbd11461050e578063b08710d714610521576102e9565b80638da5cb5b146104c95780638dbdbe6d146104d1578063929f18e4146104e4576102e9565b806378ed5d1f1161017657806378ed5d1f1461049b5780637cd07e47146104ae5780638386a2af146104b6576102e9565b8063632ff7e514610480578063715018a614610493576102e9565b80633deb2c101161024a57806351eb05a6116101fe57806357a5b58c116101d857806357a5b58c146104505780635884cd8014610463578063630b5ba114610478576102e9565b806351eb05a61461040a57806355f8a6011461042a578063570bcb211461043d576102e9565b8063437a8ae61161022f578063437a8ae6146103da578063454b0608146103ef57806348cd4cb114610402576102e9565b80633deb2c10146103b25780634292f158146103c5576102e9565b806323cf3118116102a1578063286137301161028657806328613730146103845780632e0db1161461038c5780632f940c701461039f576102e9565b806323cf31181461035e57806326e51d0014610371576102e9565b80631526fe27116102d25780631526fe271461032157806317caf6f11461034357806318fccc761461034b576102e9565b8063081e3eda146102ee5780630ad58d2f1461030c575b600080fd5b6102f66105f2565b60405161030391906137cd565b60405180910390f35b61031f61031a366004612f54565b6105f8565b005b61033461032f366004612e1d565b610805565b6040516103039392919061390a565b6102f6610835565b61031f610359366004612e59565b61083b565b61031f61036c366004612de1565b6109fa565b6102f661037f366004612e1d565b610a4e565b6102f6610a6c565b61031f61039a366004612de1565b610a72565b61031f6103ad366004612e59565b610ac6565b61031f6103c0366004612fa1565b610bea565b6103cd610d66565b6040516103039190613925565b6103e2610d6f565b604051610303919061362f565b61031f6103fd366004612e1d565b610d7e565b6102f661109a565b61041d610418366004612e1d565b6110a0565b60405161030391906137bf565b6102f6610438366004612f24565b6114f3565b61031f61044b366004612e93565b6115d5565b61031f61045e366004612d81565b611651565b61046b611687565b6040516103039190613680565b61031f611696565b61031f61048e366004612d63565b6116ba565b61031f611723565b61046b6104a9366004612e1d565b61179f565b61046b6117c6565b6102f66104c4366004612e59565b6117d5565b6103e26118dc565b61031f6104df366004612f54565b6118eb565b61046b611abf565b6104ff6104fa366004612e59565b611ace565b604051610303939291906138d4565b61031f61051c366004613016565b611afd565b61046b611b45565b6102f6611b54565b61031f61053f366004612d63565b611b64565b61046b610552366004612e1d565b611cb9565b61031f610565366004612ec3565b611cc6565b61031f610578366004612e59565b611ed0565b61031f61058b366004612f54565b6120f0565b61031f61059e366004612d63565b61234b565b6105b66105b1366004612e59565b61236e565b6040516103039291906138fc565b61031f6105d2366004612d63565b612392565b6102f6612448565b6102f66105ed366004612e59565b61244e565b60075490565b821561062c57600d5443101561062c57604051600160e51b62461bcd0281526004016106239061376f565b60405180910390fd5b610634612c7f565b61063d846110a0565b6000858152600a602090815260408083203384529091529020600c549192509060ff16851080156106735750600281015460ff16155b80156106815750600d544310155b1561069157610691853383612628565b81516106c99064e8d4a51000906106af90879063ffffffff6126d016565b816106b657fe5b600184015491900463ffffffff61271416565b600182015580546106e0908563ffffffff61275d16565b81556009805460009190879081106106f457fe5b6000918252602090912001546001600160a01b03169050801561077d578154604051600160e01b63134ecffb0281526001600160a01b0383169163134ecffb9161074a918a9133918a9160009190600401613827565b600060405180830381600087803b15801561076457600080fd5b505af1158015610778573d6000803e3d6000fd5b505050505b6107b184866008898154811061078f57fe5b6000918252602090912001546001600160a01b0316919063ffffffff61279f16565b836001600160a01b031686336001600160a01b03167f8166bf25f8a2b7ed3c85049207da4358d16edbed977d23fa2ee6f0dde3ec2132886040516107f591906137cd565b60405180910390a4505050505050565b6007818154811061081257fe5b600091825260209091206003909102018054600182015460029092015490925083565b600e5481565b600d5443101561086057604051600160e51b62461bcd0281526004016106239061376f565b610868612c7f565b610871836110a0565b6000848152600a602090815260408083203384529091529020600c549192509060ff16841080156108a75750600281015460ff16155b156108b7576108b7843383612628565b8151815460009164e8d4a51000916108d49163ffffffff6126d016565b816108db57fe5b04905060006108ff6108fa84600101548461271490919063ffffffff16565b612828565b6001840183905590508015610918576109188582612851565b60006009878154811061092757fe5b6000918252602090912001546001600160a01b0316905080156109af578354604051600160e01b63134ecffb0281526001600160a01b0383169163134ecffb9161097c918b9133918c91899190600401613869565b600060405180830381600087803b15801561099657600080fd5b505af11580156109aa573d6000803e3d6000fd5b505050505b86336001600160a01b03167f71bab65ced2e5750775a0613be067df48ef06cf92a496ebf7663ae0660924954846040516109e991906137cd565b60405180910390a350505050505050565b33610a036118dc565b6001600160a01b031614610a2c57604051600160e51b62461bcd0281526004016106239061375f565b600580546001600160a01b0319166001600160a01b0392909216919091179055565b60068181548110610a5b57fe5b600091825260209091200154905081565b600d5481565b33610a7b6118dc565b6001600160a01b031614610aa457604051600160e51b62461bcd0281526004016106239061375f565b600280546001600160a01b0319166001600160a01b0392909216919091179055565b6000828152600a602090815260408083203384529091528120805482825560018201839055600980549293919286908110610afd57fe5b6000918252602090912001546001600160a01b031690508015610b8557604051600160e01b63134ecffb0281526001600160a01b0382169063134ecffb90610b529088903390899060009081906004016137db565b600060405180830381600087803b158015610b6c57600080fd5b505af1158015610b80573d6000803e3d6000fd5b505050505b610b9784836008888154811061078f57fe5b836001600160a01b031685336001600160a01b03167f2cac5e20e1541d836381527a43f651851e302817b71dc8e810284e69210c1c6b85604051610bdb91906137cd565b60405180910390a45050505050565b33610bf36118dc565b6001600160a01b03161480610c1257506003546001600160a01b031633145b610c3157604051600160e51b62461bcd028152600401610623906136ff565b8015610c3f57610c3f611696565b610c8284610c7660078881548110610c5357fe5b906000526020600020906003020160020154600e5461275d90919063ffffffff16565b9063ffffffff6129f316565b600e819055508360078681548110610c9657fe5b9060005260206000209060030201600201819055508115610cee578260098681548110610cbf57fe5b9060005260206000200160006101000a8154816001600160a01b0302191690836001600160a01b031602179055505b81610d1a5760098581548110610d0057fe5b6000918252602090912001546001600160a01b0316610d1c565b825b6001600160a01b0316857f5cc19c778e63c1c2263d75219c925ca41f42f892526d0d814a7d4beb1425ffb78685604051610d579291906138b9565b60405180910390a35050505050565b600c5460ff1681565b6003546001600160a01b031681565b33610d876118dc565b6001600160a01b031614610db057604051600160e51b62461bcd0281526004016106239061375f565b6005546001600160a01b0316610ddb57604051600160e51b62461bcd0281526004016106239061377f565b600060088281548110610dea57fe5b6000918252602082200154604051600160e01b6370a082310281526001600160a01b03909116925082906370a0823190610e2890309060040161362f565b60206040518083038186803b158015610e4057600080fd5b505afa158015610e54573d6000803e3d6000fd5b505050506040513d601f19601f82011682018060405250610e789190810190612e3b565b6005546040517f095ea7b30000000000000000000000000000000000000000000000000000000081529192506001600160a01b038085169263095ea7b392610ec69216908590600401613665565b602060405180830381600087803b158015610ee057600080fd5b505af1158015610ef4573d6000803e3d6000fd5b505050506040513d601f19601f82011682018060405250610f189190810190612dc3565b506005546040517fce5494bb0000000000000000000000000000000000000000000000000000000081526000916001600160a01b03169063ce5494bb90610f63908690600401613680565b602060405180830381600087803b158015610f7d57600080fd5b505af1158015610f91573d6000803e3d6000fd5b505050506040513d601f19601f82011682018060405250610fb59190810190612dff565b604051600160e01b6370a082310281529091506001600160a01b038216906370a0823190610fe790309060040161362f565b60206040518083038186803b158015610fff57600080fd5b505afa158015611013573d6000803e3d6000fd5b505050506040513d601f19601f820116820180604052506110379190810190612e3b565b821461105857604051600160e51b62461bcd0281526004016106239061370f565b806008858154811061106657fe5b9060005260206000200160006101000a8154816001600160a01b0302191690836001600160a01b0316021790555050505050565b600f5481565b6110a8612c7f565b600782815481106110b557fe5b600091825260209182902060408051606081018252600390930290910180548352600181015493830184905260020154908201529150431180156110fb57506000600e54115b156114ee5760006008838154811061110f57fe5b600091825260209091200154604051600160e01b6370a082310281526001600160a01b03909116906370a082319061114b90309060040161362f565b60206040518083038186803b15801561116357600080fd5b505afa158015611177573d6000803e3d6000fd5b505050506040513d601f19601f8201168201806040525061119b9190810190612e3b565b9050801561146a57600c5460ff16831080156111ce5750600683815481106111bf57fe5b90600052602060002001546000145b80156111dc5750600d544310155b1561137957600080905060006111f88460200151600d546114f3565b90506000600e546112168660400151846126d090919063ffffffff16565b8161121d57fe5b049050801561125d579182019161125a846112438364e8d4a5100063ffffffff6126d016565b8161124a57fe5b875191900463ffffffff6129f316565b85525b8451600680548890811061126d57fe5b90600052602060002001819055506000611289600d54436114f3565b90506000600e546112a78860400151846126d090919063ffffffff16565b816112ae57fe5b04905080156112ee57938401936112eb866112d48364e8d4a5100063ffffffff6126d016565b816112db57fe5b895191900463ffffffff6129f316565b87525b841561136f57600480546040517f12514bba0000000000000000000000000000000000000000000000000000000081526001600160a01b03909116916312514bba9161133c918991016137cd565b600060405180830381600087803b15801561135657600080fd5b505af115801561136a573d6000803e3d6000fd5b505050505b505050505061146a565b60006113898360200151436114f3565b90506000600e546113a78560400151846126d090919063ffffffff16565b816113ae57fe5b049050801561146757600480546040517f12514bba0000000000000000000000000000000000000000000000000000000081526001600160a01b03909116916312514bba916113ff918591016137cd565b600060405180830381600087803b15801561141957600080fd5b505af115801561142d573d6000803e3d6000fd5b505050506114648361144d64e8d4a51000846126d090919063ffffffff16565b8161145457fe5b865191900463ffffffff6129f316565b84525b50505b436020830152600780548391908590811061148157fe5b600091825260209182902083516003909202019081558282015160018201556040928301516002909101558301518351915185927f3be3541fc42237d611b30329040bfa4569541d156560acdbbae57640d20b8f46926114e4929091869161390a565b60405180910390a2505b919050565b60008183111561150257600080fd5b600061150d84612a1b565b9050600061151a84612a1b565b90508082141561154d5761154482611538868863ffffffff61275d16565b9063ffffffff6126d016565b925050506115cf565b600f5460009061158490610c766303b53800806115708a8563ffffffff61275d16565b8161157757fe5b049063ffffffff6126d016565b90506115c96115a961159c878463ffffffff61275d16565b849063ffffffff6126d016565b610c766115bc848a63ffffffff61275d16565b869063ffffffff6126d016565b93505050505b92915050565b6004546001600160a01b0316331461160257604051600160e51b62461bcd0281526004016106239061369f565b801561161057611610611696565b60108290556040517fa82758f222c215a34d3db8feacb4d5021d71fa1c26ff7dd2149178fb6daf0dc5906116459084906137cd565b60405180910390a15050565b8060005b818110156116815761167884848381811061166c57fe5b905060200201356110a0565b50600101611655565b50505050565b6001546001600160a01b031681565b60075460005b818110156116b6576116ad816110a0565b5060010161169c565b5050565b336116c36118dc565b6001600160a01b031614806116e257506003546001600160a01b031633145b61170157604051600160e51b62461bcd0281526004016106239061371f565b600380546001600160a01b0319166001600160a01b0392909216919091179055565b3361172c6118dc565b6001600160a01b03161461175557604051600160e51b62461bcd0281526004016106239061375f565b600080546040516001600160a01b03909116907f8be0079c531659141344cd1fd0a4f28419497f9722a3daafe3b4186f6b6457e0908390a3600080546001600160a01b0319169055565b600881815481106117ac57fe5b6000918252602090912001546001600160a01b0316905081565b6005546001600160a01b031681565b600c5460009060ff1683106117ff57604051600160e51b62461bcd0281526004016106239061373f565b6000838152600a602090815260408083206001600160a01b03861684529091529020600281015460ff161515600114156118815761183b612ca0565b506000848152600b602090815260408083206001600160a01b038716845282529182902082518084019093528054808452600190910154929091018290520391506118d5565b600064e8d4a510006118b36006878154811061189957fe5b60009182526020909120015484549063ffffffff6126d016565b816118ba57fe5b04905081600101548113156118d3578160010154810392505b505b5092915050565b6000546001600160a01b031690565b6118f3612c7f565b6118fc846110a0565b6000858152600a602090815260408083206001600160a01b03871684529091529020600c549192509060ff168510801561193b5750600281015460ff16155b80156119495750600d544310155b1561195957611959858483612628565b805461196b908563ffffffff6129f316565b815581516119a59064e8d4a510009061198b90879063ffffffff6126d016565b8161199257fe5b600184015491900463ffffffff612aa016565b81600101819055506000600986815481106119bc57fe5b6000918252602090912001546001600160a01b031690508015611a45578154604051600160e01b63134ecffb0281526001600160a01b0383169163134ecffb91611a12918a91899182916000919060040161389e565b600060405180830381600087803b158015611a2c57600080fd5b505af1158015611a40573d6000803e3d6000fd5b505050505b611a7b33308760088a81548110611a5857fe5b6000918252602090912001546001600160a01b031692919063ffffffff612ae916565b836001600160a01b031686336001600160a01b03167f02d7e648dd130fc184d383e55bb126ac4c9c60e8f94bf05acdf557ba2d540b47886040516107f591906137cd565b6002546001600160a01b031681565b600a60209081526000928352604080842090915290825290208054600182015460029092015490919060ff1683565b33611b066118dc565b6001600160a01b031614611b2f57604051600160e51b62461bcd0281526004016106239061375f565b600c805460ff191660ff92909216919091179055565b6004546001600160a01b031681565b6000611b5f43612a1b565b905090565b33611b6d6118dc565b6001600160a01b031614611b9657604051600160e51b62461bcd0281526004016106239061375f565b604051600160e01b6370a0823102815260009073c6a2ad8cc6e4a7e08fc37cc5954be07d499e7654906370a0823190611bd390309060040161362f565b60206040518083038186803b158015611beb57600080fd5b505afa158015611bff573d6000803e3d6000fd5b505050506040513d601f19601f82011682018060405250611c239190810190612e3b565b604051600160e01b63a9059cbb02815290915073c6a2ad8cc6e4a7e08fc37cc5954be07d499e76549063a9059cbb90611c629085908590600401613665565b602060405180830381600087803b158015611c7c57600080fd5b505af1158015611c90573d6000803e3d6000fd5b505050506040513d601f19601f82011682018060405250611cb49190810190612dc3565b505050565b600981815481106117ac57fe5b33611ccf6118dc565b6001600160a01b031614611cf857604051600160e51b62461bcd0281526004016106239061375f565b8015611d0657611d06611696565b6000600f544311611d1957600f54611d1b565b435b600e54909150611d31908663ffffffff6129f316565b600e5560088054600181810183557ff3f7a9fe364faab93b216da50a3214154f22a0a2b415b23a84c8169e8b636ee390910180546001600160a01b038089166001600160a01b03199283168117909355600980548086019091557f6e1540171b6c0c960b71a7020d9f60077f6af931a8bbf590da0223dacf75c7af0180549189169190921681179091556006805480850190915560007ff652222313e28459528d920b65115c16c04f3efc82aaedc97be59f3f377c0d3f90910181905560408051606081018252828152602081018881529181018c81526007805480890182559452905160039093027fa66cc928b5edb82af9bd49922954155ab7b0942694bea4ce44661d9a8736c68881019390935590517fa66cc928b5edb82af9bd49922954155ab7b0942694bea4ce44661d9a8736c689830155517fa66cc928b5edb82af9bd49922954155ab7b0942694bea4ce44661d9a8736c68a9091015592549091611ea1919063ffffffff61275d16565b7f7e5fd9d862c4ff361ed4ff44a7938dda8e5ea7b5a18a5cd17091453cd71d19d088604051610bdb91906137cd565b600d54431015611ef557604051600160e51b62461bcd0281526004016106239061376f565b600c5460ff168210611f1c57604051600160e51b62461bcd028152600401610623906136cf565b611f25826110a0565b506000828152600a602090815260408083203384529091529020600281015460ff16611f5657611f56833383612628565b6000838152600b60209081526040808320338452909152812060018101548154919291611f889163ffffffff61275d16565b905080156120b6576001808301829055546002546040517f095ea7b30000000000000000000000000000000000000000000000000000000081526001600160a01b039283169263095ea7b392611fe5929116908590600401613665565b602060405180830381600087803b158015611fff57600080fd5b505af1158015612013573d6000803e3d6000fd5b505050506040513d601f19601f820116820180604052506120379190810190612dc3565b506002546040517f4c06fbdf0000000000000000000000000000000000000000000000000000000081526001600160a01b0390911690634c06fbdf906120839087908590600401613665565b600060405180830381600087803b15801561209d57600080fd5b505af11580156120b1573d6000803e3d6000fd5b505050505b84336001600160a01b03167f71bab65ced2e5750775a0613be067df48ef06cf92a496ebf7663ae066092495483604051610d5791906137cd565b600d5443101561211557604051600160e51b62461bcd0281526004016106239061376f565b61211d612c7f565b612126846110a0565b6000858152600a602090815260408083203384529091529020600c549192509060ff168510801561215c5750600281015460ff16155b1561216c5761216c853383612628565b8151815460009164e8d4a51000916121899163ffffffff6126d016565b8161219057fe5b04905060006121af6108fa84600101548461271490919063ffffffff16565b90506121e764e8d4a510006121d18660000151896126d090919063ffffffff16565b816121d857fe5b8491900463ffffffff61271416565b600184015582546121fe908763ffffffff61275d16565b835561220a8582612851565b60006009888154811061221957fe5b6000918252602090912001546001600160a01b0316905080156122a1578354604051600160e01b63134ecffb0281526001600160a01b0383169163134ecffb9161226e918c9133918c91899190600401613869565b600060405180830381600087803b15801561228857600080fd5b505af115801561229c573d6000803e3d6000fd5b505050505b6122b3868860088b8154811061078f57fe5b856001600160a01b031688336001600160a01b03167f8166bf25f8a2b7ed3c85049207da4358d16edbed977d23fa2ee6f0dde3ec21328a6040516122f791906137cd565b60405180910390a487336001600160a01b03167f71bab65ced2e5750775a0613be067df48ef06cf92a496ebf7663ae06609249548460405161233991906137cd565b60405180910390a35050505050505050565b600c5460ff1660005b81811015611cb4576123668184611ed0565b600101612354565b600b6020908152600092835260408084209091529082529020805460019091015482565b3361239b6118dc565b6001600160a01b0316146123c457604051600160e51b62461bcd0281526004016106239061375f565b6001600160a01b0381166123ed57604051600160e51b62461bcd028152600401610623906136af565b600080546040516001600160a01b03808516939216917f8be0079c531659141344cd1fd0a4f28419497f9722a3daafe3b4186f6b6457e091a3600080546001600160a01b0319166001600160a01b0392909216919091179055565b60105481565b6000612458612c7f565b6007848154811061246557fe5b60009182526020808320604080516060810182526003909402909101805484526001810154848401526002015483820152878452600a82528084206001600160a01b0388168552909152822081516008805493955091939092909190889081106124cb57fe5b600091825260209091200154604051600160e01b6370a082310281526001600160a01b03909116906370a082319061250790309060040161362f565b60206040518083038186803b15801561251f57600080fd5b505afa158015612533573d6000803e3d6000fd5b505050506040513d601f19601f820116820180604052506125579190810190612e3b565b905083602001514311801561256b57508015155b156125e35760006125808560200151436114f3565b90506000600e5461259e8760400151846126d090919063ffffffff16565b816125a557fe5b04905080156125e0576125dd836125c78364e8d4a5100063ffffffff6126d016565b816125ce57fe5b8691900463ffffffff6129f316565b93505b50505b6001830154835461261d916108fa9164e8d4a5100090612609908763ffffffff6126d016565b8161261057fe5b049063ffffffff61271416565b979650505050505050565b6000838152600b602090815260408083206001600160a01b0386168452909152812060028301805460ff191660011790556006805491929164e8d4a510009161268f918890811061267557fe5b60009182526020909120015485549063ffffffff6126d016565b8161269657fe5b04905060006126b56108fa85600101548461271490919063ffffffff16565b905080156126c857600184018290558083555b505050505050565b6000826126df575060006115cf565b828202828482816126ec57fe5b041461270d57604051600160e51b62461bcd0281526004016106239061374f565b9392505050565b60008183038183128015906127295750838113155b8061273e575060008312801561273e57508381135b61270d57604051600160e51b62461bcd0281526004016106239061378f565b600061270d83836040518060400160405280601e81526020017f536166654d6174683a207375627472616374696f6e206f766572666c6f770000815250612b26565b604051611cb4908490600160e01b63a9059cbb02906127c49086908690602401613665565b60408051601f198184030181529190526020810180517bffffffffffffffffffffffffffffffffffffffffffffffffffffffff167fffffffff0000000000000000000000000000000000000000000000000000000090931692909217909152612b55565b60008082121561284d57604051600160e51b62461bcd0281526004016106239061372f565b5090565b600154604051600160e01b6370a082310281526000916001600160a01b0316906370a082319061288590309060040161362f565b60206040518083038186803b15801561289d57600080fd5b505afa1580156128b1573d6000803e3d6000fd5b505050506040513d601f19601f820116820180604052506128d59190810190612e3b565b90508082111561296c57600154604051600160e01b63a9059cbb0281526001600160a01b039091169063a9059cbb906129149086908590600401613665565b602060405180830381600087803b15801561292e57600080fd5b505af1158015612942573d6000803e3d6000fd5b505050506040513d601f19601f820116820180604052506129669190810190612dc3565b50611cb4565b600154604051600160e01b63a9059cbb0281526001600160a01b039091169063a9059cbb906129a19086908690600401613665565b602060405180830381600087803b1580156129bb57600080fd5b505af11580156129cf573d6000803e3d6000fd5b505050506040513d601f19601f820116820180604052506116819190810190612dc3565b60008282018381101561270d57604051600160e51b62461bcd028152600401610623906136bf565b600f546000906303b5380001821015612a4a5760105464e8d4a51000670c7d713b49da00005b040290506114ee565b600f5463076a700001821015612a715760105464e8d4a51000670853a0d2313c0000612a41565b600f54630b1fa80001821015612a985760105464e8d4a51000670429d069189e0000612a41565b5060006114ee565b6000828201818312801590612ab55750838112155b80612aca5750600083128015612aca57508381125b61270d57604051600160e51b62461bcd028152600401610623906136df565b6040516116819085907f23b872dd00000000000000000000000000000000000000000000000000000000906127c49087908790879060240161363d565b60008184841115612b4d57604051600160e51b62461bcd028152600401610623919061368e565b505050900390565b612b67826001600160a01b0316612c43565b612b8657604051600160e51b62461bcd028152600401610623906137af565b60006060836001600160a01b031683604051612ba29190613623565b6000604051808303816000865af19150503d8060008114612bdf576040519150601f19603f3d011682016040523d82523d6000602084013e612be4565b606091505b509150915081612c0957604051600160e51b62461bcd028152600401610623906136ef565b8051156116815780806020019051612c249190810190612dc3565b61168157604051600160e51b62461bcd0281526004016106239061379f565b6000813f7fc5d2460186f7233c927e7db2dcc703c0e500b653ca82273b7bfad8045d85a470818114801590612c7757508115155b949350505050565b60405180606001604052806000815260200160008152602001600081525090565b604051806040016040528060008152602001600081525090565b600061270d8235613940565b60008083601f840112612cd857600080fd5b50813567ffffffffffffffff811115612cf057600080fd5b602083019150836020820283011115612d0857600080fd5b9250929050565b600061270d823561394b565b600061270d825161394b565b600061270d8235613965565b600061270d8251613965565b600061270d8235613950565b600061270d8251613950565b600061270d823561395f565b600060208284031215612d7557600080fd5b6000612c778484612cba565b60008060208385031215612d9457600080fd5b823567ffffffffffffffff811115612dab57600080fd5b612db785828601612cc6565b92509250509250929050565b600060208284031215612dd557600080fd5b6000612c778484612d1b565b600060208284031215612df357600080fd5b6000612c778484612d27565b600060208284031215612e1157600080fd5b6000612c778484612d33565b600060208284031215612e2f57600080fd5b6000612c778484612d3f565b600060208284031215612e4d57600080fd5b6000612c778484612d4b565b60008060408385031215612e6c57600080fd5b6000612e788585612d3f565b9250506020612e8985828601612cba565b9150509250929050565b60008060408385031215612ea657600080fd5b6000612eb28585612d3f565b9250506020612e8985828601612d0f565b60008060008060808587031215612ed957600080fd5b6000612ee58787612d3f565b9450506020612ef687828801612d27565b9350506040612f0787828801612d27565b9250506060612f1887828801612d0f565b91505092959194509250565b60008060408385031215612f3757600080fd5b6000612f438585612d3f565b9250506020612e8985828601612d3f565b600080600060608486031215612f6957600080fd5b6000612f758686612d3f565b9350506020612f8686828701612d3f565b9250506040612f9786828701612cba565b9150509250925092565b600080600080600060a08688031215612fb957600080fd5b6000612fc58888612d3f565b9550506020612fd688828901612d3f565b9450506040612fe788828901612d27565b9350506060612ff888828901612d0f565b925050608061300988828901612d0f565b9150509295509295909350565b60006020828403121561302857600080fd5b6000612c778484612d57565b61303d81613970565b82525050565b61303d81613940565b61303d8161394b565b600061306082613933565b61306a81856114ee565b935061307a818560208601613986565b9290920192915050565b61303d81613965565b61303d81613950565b61303d8161397b565b60006130aa82613933565b6130b48185613937565b93506130c4818560208601613986565b6130cd816139b2565b9093019392505050565b60006130e4601383613937565b7f6e6f74206d696e696e6720747265617375727900000000000000000000000000815260200192915050565b600061311d602683613937565b7f4f776e61626c653a206e6577206f776e657220697320746865207a65726f206181527f6464726573730000000000000000000000000000000000000000000000000000602082015260400192915050565b600061317c601b83613937565b7f536166654d6174683a206164646974696f6e206f766572666c6f770000000000815260200192915050565b60006131b5601e83613937565b7f5468697320706f6f6c206973206e6f7420666f72206d6967726174696f6e0000815260200192915050565b60006131ee602183613937565b7f5369676e6564536166654d6174683a206164646974696f6e206f766572666c6f81527f7700000000000000000000000000000000000000000000000000000000000000602082015260400192915050565b600061324d602083613937565b7f5361666545524332303a206c6f772d6c6576656c2063616c6c206661696c6564815260200192915050565b6000613286602a83613937565b7f4f776e61626c653a2063616c6c6572206973206e6f7420746865206f776e657281527f7c7c6d756c7469706c6500000000000000000000000000000000000000000000602082015260400192915050565b60006132e5602983613937565b7f4d61737465724368656656323a206d696772617465642062616c616e6365206d81527f757374206d617463680000000000000000000000000000000000000000000000602082015260400192915050565b6000613344600e83613937565b7f6d756c7469706c653a207775743f000000000000000000000000000000000000815260200192915050565b600061337d602083613937565b7f53616665436173743a2076616c7565206d75737420626520706f736974697665815260200192915050565b60006133b6601283613937565b7f6e6f74206d6967726174696f6e20706f6f6c0000000000000000000000000000815260200192915050565b60006133ef602183613937565b7f536166654d6174683a206d756c7469706c69636174696f6e206f766572666c6f81527f7700000000000000000000000000000000000000000000000000000000000000602082015260400192915050565b600061344e602083613937565b7f4f776e61626c653a2063616c6c6572206973206e6f7420746865206f776e6572815260200192915050565b6000613487600783613937565b7f6e6f742079657400000000000000000000000000000000000000000000000000815260200192915050565b60006134c0601d83613937565b7f4d61737465724368656656323a206e6f206d69677261746f7220736574000000815260200192915050565b60006134f9602483613937565b7f5369676e6564536166654d6174683a207375627472616374696f6e206f76657281527f666c6f7700000000000000000000000000000000000000000000000000000000602082015260400192915050565b6000613558602a83613937565b7f5361666545524332303a204552433230206f7065726174696f6e20646964206e81527f6f74207375636365656400000000000000000000000000000000000000000000602082015260400192915050565b60006135b7601f83613937565b7f5361666545524332303a2063616c6c20746f206e6f6e2d636f6e747261637400815260200192915050565b805160608301906135f4848261308d565b506020820151613607602085018261308d565b506040820151611681604085018261308d565b61303d8161395f565b600061270d8284613055565b602081016115cf8284613043565b6060810161364b8286613043565b6136586020830185613043565b612c77604083018461308d565b604081016136738285613043565b61270d602083018461308d565b602081016115cf8284613084565b6020808252810161270d818461309f565b602080825281016115cf816130d7565b602080825281016115cf81613110565b602080825281016115cf8161316f565b602080825281016115cf816131a8565b602080825281016115cf816131e1565b602080825281016115cf81613240565b602080825281016115cf81613279565b602080825281016115cf816132d8565b602080825281016115cf81613337565b602080825281016115cf81613370565b602080825281016115cf816133a9565b602080825281016115cf816133e2565b602080825281016115cf81613441565b602080825281016115cf8161347a565b602080825281016115cf816134b3565b602080825281016115cf816134ec565b602080825281016115cf8161354b565b602080825281016115cf816135aa565b606081016115cf82846135e3565b602081016115cf828461308d565b60a081016137e9828861308d565b6137f66020830187613034565b6138036040830186613043565b6138106060830185613096565b61381d6080830184613096565b9695505050505050565b60a08101613835828861308d565b6138426020830187613034565b61384f6040830186613043565b61385c6060830185613096565b61381d608083018461308d565b60a08101613877828861308d565b6138846020830187613034565b6138916040830186613043565b61385c606083018561308d565b60a081016138ac828861308d565b6138426020830187613043565b604081016138c7828561308d565b61270d602083018461304c565b606081016138e2828661308d565b6138ef602083018561308d565b612c77604083018461304c565b60408101613673828561308d565b60608101613918828661308d565b613658602083018561308d565b602081016115cf828461361a565b5190565b90815260200190565b60006115cf82613953565b151590565b90565b6001600160a01b031690565b60ff1690565b60006115cf82613940565b60006115cf82613965565b60006115cf82613950565b60005b838110156139a1578181015183820152602001613989565b838111156116815750506000910152565b601f01601f19169056fea265627a7a723058203984953dec3912ce9ffbbab187e92bc39c94d7f410a09dcc240a4e84c7a9ed1d6c6578706572696d656e74616cf50037",
  "devdoc": {
    "methods": {
      "add(uint256,address,address,bool)": {
        "params": {
          "allocPoint": "AP of the new pool.",
          "lpToken_": "Address of the LP ERC-20 token.",
          "rewarder_": "Address of the rewarder delegate.",
          "withUpdate": "True if mass update pool before update pool"
        }
      },
      "constructor": {
        "params": {
          "cla_": "The CLA token contract address."
        }
      },
      "deposit(uint256,uint256,address)": {
        "params": {
          "amount": "LP token amount to deposit.",
          "pId": "The index of the pool. See `poolInfo`.",
          "to": "The receiver of `amount` deposit benefit."
        }
      },
      "emergencyWithdraw(uint256,address)": {
        "params": {
          "pId": "The index of the pool. See `poolInfo`.",
          "to": "Receiver of the LP tokens."
        }
      },
      "harvest(uint256,address)": {
        "params": {
          "pId": "The index of the pool. See `poolInfo`.",
          "to": "Receiver of CLA rewards."
        }
      },
      "massUpdatePools(uint256[])": {
        "params": {
          "pIds": "Pool IDs of all to be updated. Make sure to update all active pools."
        }
      },
      "migrate(uint256)": {
        "params": {
          "pId": "The index of the pool. See `poolInfo`."
        }
      },
      "owner()": {
        "details": "Returns the address of the current owner."
      },
      "pendingCla(uint256,address)": {
        "params": {
          "pId": "The index of the pool. See `poolInfo`.",
          "user_": "Address of user."
        },
        "return": "pending CLA reward for a given user."
      },
      "renounceOwnership()": {
        "details": "Leaves the contract without owner. It will not be possible to call `onlyOwner` functions anymore. Can only be called by the current owner.     * NOTE: Renouncing ownership will leave the contract without an owner, thereby removing any functionality that is only available to the owner."
      },
      "set(uint256,uint256,address,bool,bool)": {
        "params": {
          "allocPoint": "New AP of the pool.",
          "overwrite": "True if _rewarder should be `set`. Otherwise `_rewarder` is ignored.",
          "pId": "The index of the pool. See `poolInfo`.",
          "rewarder_": "Address of the rewarder delegate.",
          "withUpdate": "True if mass update pool before update pool"
        }
      },
      "setLpRewardRatio(uint256,bool)": {
        "params": {
          "lpRewardRatio_": "lpreward ratio",
          "withUpdate": "mass update pool flag"
        }
      },
      "setMigrationPoolLength(uint8)": {
        "params": {
          "length": "length of migration pools"
        }
      },
      "setMigrator(address)": {
        "params": {
          "migrator_": "The contract address to set."
        }
      },
      "setMultiple(address)": {
        "params": {
          "multiple_": "Address of multiplier address"
        }
      },
      "transferOwnership(address)": {
        "details": "Transfers ownership of the contract to a new account (`newOwner`). Can only be called by the current owner."
      },
      "updatePool(uint256)": {
        "params": {
          "pId": "The index of the pool. See `poolInfo`."
        },
        "return": "pool Returns the pool that was updated."
      },
      "withdraw(uint256,uint256,address)": {
        "params": {
          "amount": "LP token amount to withdraw.",
          "pId": "The index of the pool. See `poolInfo`.",
          "to": "Receiver of the LP tokens."
        }
      },
      "withdrawAndHarvest(uint256,uint256,address)": {
        "params": {
          "amount": "LP token amount to withdraw.",
          "pId": "The index of the pool. See `poolInfo`.",
          "to": "Receiver of the LP tokens and CLA rewards."
        }
      },
      "withdrawKSP(address)": {
        "params": {
          "to": "address of ksp receiver"
        }
      }
    },
    "title": "MasterChef of CLA. * References: * - https://github.com/sushiswap/sushiswap/blob/canary/contracts/MasterChef.sol - https://github.com/sushiswap/sushiswap/blob/canary/contracts/MasterChefV2.sol"
  },
  "userdoc": {
    "methods": {
      "add(uint256,address,address,bool)": {
        "notice": "Add a new LP to the pool. Can only be called by the owner. DO NOT add the same LP token more than once. Rewards will be messed up if you do. Pool of zero (0) index MUST be Cla-Klay lp token."
      },
      "claPerBlocks(uint256,uint256)": {
        "notice": "Return reward multiplier over the given _from to _to block."
      },
      "deposit(uint256,uint256,address)": {
        "notice": "Deposit LP tokens to MCV2 for CLA allocation."
      },
      "emergencyWithdraw(uint256,address)": {
        "notice": "Withdraw without caring about rewards. EMERGENCY ONLY."
      },
      "harvest(uint256,address)": {
        "notice": "Harvest proceeds for transaction sender to `to`."
      },
      "massUpdatePools()": {
        "notice": "Update reward variables for all pools. Be careful of gas spending!"
      },
      "massUpdatePools(uint256[])": {
        "notice": "Update reward variables for all pools. Be careful of gas spending!"
      },
      "migrate(uint256)": {
        "notice": "Migrate LP token to another LP contract through the `migrator` contract.onlyOnwer to protect from front running attack"
      },
      "migrationHarvest(uint256,address)": {
        "notice": "harvest migration reward"
      },
      "pendingCla(uint256,address)": {
        "notice": "View function to see pending CLA on frontend."
      },
      "poolLength()": {
        "notice": "Returns the number of MCV2 pools."
      },
      "set(uint256,uint256,address,bool,bool)": {
        "notice": "Update the given pool's CLA allocation point and `IRewarder` contract. Can only be called by the owner."
      },
      "setLpRewardRatio(uint256,bool)": {
        "notice": "set lp reward ratio. Can Only be called by mining treasury contract."
      },
      "setMigrationPoolLength(uint8)": {
        "notice": "Update migration pool length."
      },
      "setMigrator(address)": {
        "notice": "Set the `migrator` contract. Can only be called by the owner."
      },
      "setMultiple(address)": {
        "notice": "Update multiplier address. Can only be called by the owner or previous multiplier address"
      },
      "updatePool(uint256)": {
        "notice": "Update reward variables of the given pool."
      },
      "withdraw(uint256,uint256,address)": {
        "notice": "Withdraw LP tokens from MCV2."
      },
      "withdrawAndHarvest(uint256,uint256,address)": {
        "notice": "Withdraw LP tokens from MCV2 and harvest proceeds for transaction sender to `to`."
      },
      "withdrawKSP(address)": {
        "notice": "withdraw ksp token from master chef contract. Can only be called by the owner,"
      }
    }
  }
}