{
  "address": "0x54FB37b0D56D837BC021d89f3cd833dE87BAf09e",
  "abi": [
    {
      "constant": false,
      "inputs": [
        {
          "name": "claDistributor_",
          "type": "address"
        }
      ],
      "name": "setClaDistributor",
      "outputs": [],
      "payable": false,
      "stateMutability": "nonpayable",
      "type": "function"
    },
    {
      "constant": false,
      "inputs": [
        {
          "name": "amount",
          "type": "uint256"
        }
      ],
      "name": "transfer",
      "outputs": [],
      "payable": false,
      "stateMutability": "nonpayable",
      "type": "function"
    },
    {
      "constant": true,
      "inputs": [],
      "name": "masterChef",
      "outputs": [
        {
          "name": "",
          "type": "address"
        }
      ],
      "payable": false,
      "stateMutability": "view",
      "type": "function"
    },
    {
      "constant": true,
      "inputs": [],
      "name": "cla",
      "outputs": [
        {
          "name": "",
          "type": "address"
        }
      ],
      "payable": false,
      "stateMutability": "view",
      "type": "function"
    },
    {
      "constant": false,
      "inputs": [
        {
          "name": "cla_",
          "type": "address"
        }
      ],
      "name": "setCla",
      "outputs": [],
      "payable": false,
      "stateMutability": "nonpayable",
      "type": "function"
    },
    {
      "constant": false,
      "inputs": [],
      "name": "renounceOwnership",
      "outputs": [],
      "payable": false,
      "stateMutability": "nonpayable",
      "type": "function"
    },
    {
      "constant": false,
      "inputs": [
        {
          "name": "ratioSetter_",
          "type": "address"
        }
      ],
      "name": "setRatioSetter",
      "outputs": [],
      "payable": false,
      "stateMutability": "nonpayable",
      "type": "function"
    },
    {
      "constant": true,
      "inputs": [],
      "name": "owner",
      "outputs": [
        {
          "name": "",
          "type": "address"
        }
      ],
      "payable": false,
      "stateMutability": "view",
      "type": "function"
    },
    {
      "constant": true,
      "inputs": [],
      "name": "ratioSetter",
      "outputs": [
        {
          "name": "",
          "type": "address"
        }
      ],
      "payable": false,
      "stateMutability": "view",
      "type": "function"
    },
    {
      "constant": false,
      "inputs": [
        {
          "name": "masterChef_",
          "type": "address"
        }
      ],
      "name": "setMasterChef",
      "outputs": [],
      "payable": false,
      "stateMutability": "nonpayable",
      "type": "function"
    },
    {
      "constant": false,
      "inputs": [
        {
          "name": "clsRewardRatio",
          "type": "uint256"
        },
        {
          "name": "withUpdate",
          "type": "bool"
        }
      ],
      "name": "setClsRewardRatio",
      "outputs": [],
      "payable": false,
      "stateMutability": "nonpayable",
      "type": "function"
    },
    {
      "constant": true,
      "inputs": [],
      "name": "claDistributor",
      "outputs": [
        {
          "name": "",
          "type": "address"
        }
      ],
      "payable": false,
      "stateMutability": "view",
      "type": "function"
    },
    {
      "constant": false,
      "inputs": [
        {
          "name": "newOwner",
          "type": "address"
        }
      ],
      "name": "transferOwnership",
      "outputs": [],
      "payable": false,
      "stateMutability": "nonpayable",
      "type": "function"
    },
    {
      "anonymous": false,
      "inputs": [
        {
          "indexed": false,
          "name": "clsRewardRatio",
          "type": "uint256"
        }
      ],
      "name": "LogSetClaRewardRatio",
      "type": "event"
    },
    {
      "anonymous": false,
      "inputs": [
        {
          "indexed": true,
          "name": "previousOwner",
          "type": "address"
        },
        {
          "indexed": true,
          "name": "newOwner",
          "type": "address"
        }
      ],
      "name": "OwnershipTransferred",
      "type": "event"
    }
  ],
  "transactionHash": "0x79379899c59c0ea8aac5ba5aed4f8dc7744511268bc9d381b722eca6aad66a3c",
  "args": [],
  "solcInputHash": "361661ccd7e0f10c6c6321a0fe32ce9d",
  "bytecode": "0x60806040819052600080546001600160a01b031916339081178255918291907f8be0079c531659141344cd1fd0a4f28419497f9722a3daafe3b4186f6b6457e0908290a350610c9c806100536000396000f3fe608060405234801561001057600080fd5b50600436106100df5760003560e01c80637634262b1161008c578063a2d9f4dc11610066578063a2d9f4dc146101b9578063b7236694146101df578063cf2b8f3814610204578063f2fde38b1461020c576100df565b80637634262b146101835780638da5cb5b146101a95780639db6480a146101b1576100df565b80635884cd80116100bd5780635884cd801461014d57806361cc77d214610155578063715018a61461017b576100df565b806311b169bf146100e457806312514bba1461010c578063575a86b214610129575b600080fd5b61010a600480360360208110156100fa57600080fd5b50356001600160a01b0316610232565b005b61010a6004803603602081101561012257600080fd5b50356102bb565b61013161033c565b604080516001600160a01b039092168252519081900360200190f35b61013161034b565b61010a6004803603602081101561016b57600080fd5b50356001600160a01b031661035a565b61010a6103dd565b61010a6004803603602081101561019957600080fd5b50356001600160a01b031661048e565b61013161052c565b61013161053b565b61010a600480360360208110156101cf57600080fd5b50356001600160a01b031661054a565b61010a600480360360408110156101f557600080fd5b508035906020013515156105d3565b6101316107e1565b61010a6004803603602081101561022257600080fd5b50356001600160a01b03166107f0565b3361023b61052c565b6001600160a01b0316146102995760408051600160e51b62461bcd02815260206004820181905260248201527f4f776e61626c653a2063616c6c6572206973206e6f7420746865206f776e6572604482015290519081900360640190fd5b600280546001600160a01b0319166001600160a01b0392909216919091179055565b6002546001600160a01b03163314806102de57506003546001600160a01b031633145b61031c57604051600160e51b62461bcd028152600401808060200182810382526035815260200180610c126035913960400191505060405180910390fd5b600154610339906001600160a01b0316338363ffffffff6108fa16565b50565b6003546001600160a01b031681565b6001546001600160a01b031681565b6001546001600160a01b0316156103bb5760408051600160e51b62461bcd02815260206004820152601260248201527f636c6120697320616c7265616479207365740000000000000000000000000000604482015290519081900360640190fd5b600180546001600160a01b0319166001600160a01b0392909216919091179055565b336103e661052c565b6001600160a01b0316146104445760408051600160e51b62461bcd02815260206004820181905260248201527f4f776e61626c653a2063616c6c6572206973206e6f7420746865206f776e6572604482015290519081900360640190fd5b600080546040516001600160a01b03909116907f8be0079c531659141344cd1fd0a4f28419497f9722a3daafe3b4186f6b6457e0908390a3600080546001600160a01b0319169055565b3361049761052c565b6001600160a01b031614806104b657506004546001600160a01b031633145b61050a5760408051600160e51b62461bcd02815260206004820152601160248201527f726174696f5365747465723a207775743f000000000000000000000000000000604482015290519081900360640190fd5b600480546001600160a01b0319166001600160a01b0392909216919091179055565b6000546001600160a01b031690565b6004546001600160a01b031681565b3361055361052c565b6001600160a01b0316146105b15760408051600160e51b62461bcd02815260206004820181905260248201527f4f776e61626c653a2063616c6c6572206973206e6f7420746865206f776e6572604482015290519081900360640190fd5b600380546001600160a01b0319166001600160a01b0392909216919091179055565b336105dc61052c565b6001600160a01b031614806105fb57506004546001600160a01b031633145b61063957604051600160e51b62461bcd02815260040180806020018281038252602d815260200180610ba9602d913960400191505060405180910390fd5b64e8d4a5100082111561068057604051600160e51b62461bcd02815260040180806020018281038252603c815260200180610bd6603c913960400191505060405180910390fd5b600354604080517f570bcb2100000000000000000000000000000000000000000000000000000000815264e8d4a51000859003600482018190528415156024830152915191926001600160a01b03169163570bcb219160448082019260009290919082900301818387803b1580156106f757600080fd5b505af115801561070b573d6000803e3d6000fd5b50506002546001600160a01b03161591506107a9905057600254604080517fb723669400000000000000000000000000000000000000000000000000000000815260048101869052841515602482015290516001600160a01b039092169163b72366949160448082019260009290919082900301818387803b15801561079057600080fd5b505af11580156107a4573d6000803e3d6000fd5b505050505b6040805184815290517fb5547d12315ae3412fce9027dd9a803f00678717fe2de6b5835de10f906495df9181900360200190a1505050565b6002546001600160a01b031681565b336107f961052c565b6001600160a01b0316146108575760408051600160e51b62461bcd02815260206004820181905260248201527f4f776e61626c653a2063616c6c6572206973206e6f7420746865206f776e6572604482015290519081900360640190fd5b6001600160a01b03811661089f57604051600160e51b62461bcd028152600401808060200182810382526026815260200180610b836026913960400191505060405180910390fd5b600080546040516001600160a01b03808516939216917f8be0079c531659141344cd1fd0a4f28419497f9722a3daafe3b4186f6b6457e091a3600080546001600160a01b0319166001600160a01b0392909216919091179055565b604080516001600160a01b038416602482015260448082018490528251808303909101815260649091019091526020810180517bffffffffffffffffffffffffffffffffffffffffffffffffffffffff167fa9059cbb0000000000000000000000000000000000000000000000000000000017905261097a90849061097f565b505050565b610991826001600160a01b0316610b46565b6109e55760408051600160e51b62461bcd02815260206004820152601f60248201527f5361666545524332303a2063616c6c20746f206e6f6e2d636f6e747261637400604482015290519081900360640190fd5b60006060836001600160a01b0316836040518082805190602001908083835b60208310610a235780518252601f199092019160209182019101610a04565b6001836020036101000a0380198251168184511680821785525050505050509050019150506000604051808303816000865af19150503d8060008114610a85576040519150601f19603f3d011682016040523d82523d6000602084013e610a8a565b606091505b509150915081610ae45760408051600160e51b62461bcd02815260206004820181905260248201527f5361666545524332303a206c6f772d6c6576656c2063616c6c206661696c6564604482015290519081900360640190fd5b805115610b4057808060200190516020811015610b0057600080fd5b5051610b4057604051600160e51b62461bcd02815260040180806020018281038252602a815260200180610c47602a913960400191505060405180910390fd5b50505050565b6000813f7fc5d2460186f7233c927e7db2dcc703c0e500b653ca82273b7bfad8045d85a470818114801590610b7a57508115155b94935050505056fe4f776e61626c653a206e6577206f776e657220697320746865207a65726f20616464726573734f776e61626c653a2063616c6c6572206973206e6f7420746865206f776e65727c7c726174696f536574746572636c61526577617264526174696f2073686f756c64206265206c6f776572207468616e20434c415f5245574152445f524154494f5f44495649534f524f776e61626c653a2063616c6c6572206973206e6f7420746865206d6173746572436865667c7c636c614469737472696275746f725361666545524332303a204552433230206f7065726174696f6e20646964206e6f742073756363656564a165627a7a72305820a64778dff573310574cb5a4c487701cba99cfbd3b2faf9c33b7eff219ead70be0029",
  "devdoc": {
    "methods": {
      "owner()": {
        "details": "Returns the address of the current owner."
      },
      "renounceOwnership()": {
        "details": "Leaves the contract without owner. It will not be possible to call `onlyOwner` functions anymore. Can only be called by the current owner.     * NOTE: Renouncing ownership will leave the contract without an owner, thereby removing any functionality that is only available to the owner."
      },
      "transferOwnership(address)": {
        "details": "Transfers ownership of the contract to a new account (`newOwner`). Can only be called by the current owner."
      }
    }
  },
  "userdoc": {
    "methods": {}
  }
}