{
  "address": "0x79841BFF57F826aB6F1AE8dBC68a564375AA878F",
  "abi": [
    {
      "constant": true,
      "inputs": [],
      "name": "feeTo",
      "outputs": [
        {
          "name": "",
          "type": "address"
        }
      ],
      "payable": false,
      "stateMutability": "view",
      "type": "function"
    },
    {
      "constant": true,
      "inputs": [],
      "name": "feeToSetter",
      "outputs": [
        {
          "name": "",
          "type": "address"
        }
      ],
      "payable": false,
      "stateMutability": "view",
      "type": "function"
    },
    {
      "constant": true,
      "inputs": [],
      "name": "feeDistributor",
      "outputs": [
        {
          "name": "",
          "type": "address"
        }
      ],
      "payable": false,
      "stateMutability": "view",
      "type": "function"
    },
    {
      "constant": true,
      "inputs": [
        {
          "name": "",
          "type": "uint256"
        }
      ],
      "name": "allPairs",
      "outputs": [
        {
          "name": "",
          "type": "address"
        }
      ],
      "payable": false,
      "stateMutability": "view",
      "type": "function"
    },
    {
      "constant": false,
      "inputs": [
        {
          "name": "_migrator",
          "type": "address"
        }
      ],
      "name": "setMigrator",
      "outputs": [],
      "payable": false,
      "stateMutability": "nonpayable",
      "type": "function"
    },
    {
      "constant": false,
      "inputs": [
        {
          "name": "tokenA",
          "type": "address"
        },
        {
          "name": "tokenB",
          "type": "address"
        },
        {
          "name": "decimals",
          "type": "uint8"
        }
      ],
      "name": "createPair",
      "outputs": [
        {
          "name": "pair",
          "type": "address"
        }
      ],
      "payable": false,
      "stateMutability": "nonpayable",
      "type": "function"
    },
    {
      "constant": true,
      "inputs": [],
      "name": "allPairsLength",
      "outputs": [
        {
          "name": "",
          "type": "uint256"
        }
      ],
      "payable": false,
      "stateMutability": "view",
      "type": "function"
    },
    {
      "constant": true,
      "inputs": [],
      "name": "klayBuybackFund",
      "outputs": [
        {
          "name": "",
          "type": "address"
        }
      ],
      "payable": false,
      "stateMutability": "view",
      "type": "function"
    },
    {
      "constant": true,
      "inputs": [],
      "name": "migrator",
      "outputs": [
        {
          "name": "",
          "type": "address"
        }
      ],
      "payable": false,
      "stateMutability": "view",
      "type": "function"
    },
    {
      "constant": false,
      "inputs": [
        {
          "name": "_feeToSetter",
          "type": "address"
        }
      ],
      "name": "setFeeToSetter",
      "outputs": [],
      "payable": false,
      "stateMutability": "nonpayable",
      "type": "function"
    },
    {
      "constant": false,
      "inputs": [
        {
          "name": "tokenA",
          "type": "address"
        },
        {
          "name": "tokenB",
          "type": "address"
        }
      ],
      "name": "createPair",
      "outputs": [
        {
          "name": "pair",
          "type": "address"
        }
      ],
      "payable": false,
      "stateMutability": "nonpayable",
      "type": "function"
    },
    {
      "constant": false,
      "inputs": [
        {
          "name": "_feeDistributor",
          "type": "address"
        }
      ],
      "name": "setFeeDistributor",
      "outputs": [],
      "payable": false,
      "stateMutability": "nonpayable",
      "type": "function"
    },
    {
      "constant": true,
      "inputs": [
        {
          "name": "",
          "type": "address"
        },
        {
          "name": "",
          "type": "address"
        }
      ],
      "name": "getPair",
      "outputs": [
        {
          "name": "",
          "type": "address"
        }
      ],
      "payable": false,
      "stateMutability": "view",
      "type": "function"
    },
    {
      "constant": false,
      "inputs": [
        {
          "name": "_klayBuybackFund",
          "type": "address"
        }
      ],
      "name": "setKlayBuybackFund",
      "outputs": [],
      "payable": false,
      "stateMutability": "nonpayable",
      "type": "function"
    },
    {
      "constant": false,
      "inputs": [
        {
          "name": "_feeTo",
          "type": "address"
        }
      ],
      "name": "setFeeTo",
      "outputs": [],
      "payable": false,
      "stateMutability": "nonpayable",
      "type": "function"
    },
    {
      "inputs": [
        {
          "name": "_feeToSetter",
          "type": "address"
        }
      ],
      "payable": false,
      "stateMutability": "nonpayable",
      "type": "constructor"
    },
    {
      "anonymous": false,
      "inputs": [
        {
          "indexed": true,
          "name": "token0",
          "type": "address"
        },
        {
          "indexed": true,
          "name": "token1",
          "type": "address"
        },
        {
          "indexed": false,
          "name": "pair",
          "type": "address"
        },
        {
          "indexed": false,
          "name": "",
          "type": "uint256"
        }
      ],
      "name": "PairCreated",
      "type": "event"
    }
  ],
  "transactionHash": "0xbddfb2f9536801e2de3cab93653a9a35a6085e20ee88e8940f62317f0507a249",
  "args": [
    "0x0E83454DeC08cdc5b88e9dC29CaF35b3Da00F1F1"
  ],
  "solcInputHash": "2ee3e3b858092355b208e192c5e4dac0",
  "bytecode": "0x608060405234801561001057600080fd5b506040516020806135e68339810180604052602081101561003057600080fd5b5051600080546001600160a01b039092166001600160a01b0319909216919091179055613584806100626000396000f3fe608060405234801561001057600080fd5b50600436106100f55760003560e01c8063672a9f8d11610097578063ccfc2e8d11610066578063ccfc2e8d1461022b578063e6a4390514610251578063f09240c31461027f578063f46901ed146102a5576100f5565b8063672a9f8d146101c75780637cd07e47146101cf578063a2e74af6146101d7578063c9c65396146101fd576100f5565b80631e3dd18b116100d35780631e3dd18b1461012e57806323cf31181461014b5780633dea766414610173578063574f2ba3146101ad576100f5565b8063017e7e58146100fa578063094b74151461011e5780630d43e8ad14610126575b600080fd5b6101026102cb565b604080516001600160a01b039092168252519081900360200190f35b6101026102da565b6101026102e9565b6101026004803603602081101561014457600080fd5b50356102f8565b6101716004803603602081101561016157600080fd5b50356001600160a01b031661031f565b005b6101026004803603606081101561018957600080fd5b5080356001600160a01b03908116916020810135909116906040013560ff166103a3565b6101b5610702565b60408051918252519081900360200190f35b610102610708565b610102610717565b610171600480360360208110156101ed57600080fd5b50356001600160a01b0316610726565b6101026004803603604081101561021357600080fd5b506001600160a01b03813581169160200135166107aa565b6101716004803603602081101561024157600080fd5b50356001600160a01b0316610aee565b6101026004803603604081101561026757600080fd5b506001600160a01b0381358116916020013516610b72565b6101716004803603602081101561029557600080fd5b50356001600160a01b0316610b98565b610171600480360360208110156102bb57600080fd5b50356001600160a01b0316610c1c565b6001546001600160a01b031681565b6000546001600160a01b031681565b6002546001600160a01b031681565b6006818154811061030557fe5b6000918252602090912001546001600160a01b0316905081565b6000546001600160a01b031633146103815760408051600160e51b62461bcd02815260206004820152601460248201527f556e697377617056323a20464f5242494444454e000000000000000000000000604482015290519081900360640190fd5b600480546001600160a01b0319166001600160a01b0392909216919091179055565b6004546000906001600160a01b031633146103bd57600080fd5b826001600160a01b0316846001600160a01b031614156104275760408051600160e51b62461bcd02815260206004820152601e60248201527f556e697377617056323a204944454e544943414c5f4144445245535345530000604482015290519081900360640190fd5b600080846001600160a01b0316866001600160a01b03161061044a57848661044d565b85855b90925090506001600160a01b0382166104b05760408051600160e51b62461bcd02815260206004820152601760248201527f556e697377617056323a205a45524f5f41444452455353000000000000000000604482015290519081900360640190fd5b6001600160a01b0382811660009081526005602090815260408083208585168452909152902054161561052d5760408051600160e51b62461bcd02815260206004820152601660248201527f556e697377617056323a20504149525f45584953545300000000000000000000604482015290519081900360640190fd5b60606040518060200161053f90610ca0565b601f1982820381018352601f9091011660408181526001600160a01b03808716606090811b602085810191909152918716901b6034840152815160288185030181526048909301909152815191810191909120825192935091829184016000f5604080517f89232a000000000000000000000000000000000000000000000000000000000081526001600160a01b038781166004830152868116602483015260ff8a1660448301529151929750908716916389232a009160648082019260009290919082900301818387803b15801561061757600080fd5b505af115801561062b573d6000803e3d6000fd5b505050506001600160a01b0384811660008181526005602081815260408084208987168086529083528185208054978d166001600160a01b031998891681179091559383528185208686528352818520805488168517905560068054600181018255958190527ff652222313e28459528d920b65115c16c04f3efc82aaedc97be59f3f377c0d3f90950180549097168417909655925483519283529082015281517f0d3648bd0f6ba80134a33ba9275ac585d9d315f0ad8355cddefde31afa28d0e9929181900390910190a3505050509392505050565b60065490565b6003546001600160a01b031681565b6004546001600160a01b031681565b6000546001600160a01b031633146107885760408051600160e51b62461bcd02815260206004820152601460248201527f556e697377617056323a20464f5242494444454e000000000000000000000000604482015290519081900360640190fd5b600080546001600160a01b0319166001600160a01b0392909216919091179055565b6000816001600160a01b0316836001600160a01b031614156108165760408051600160e51b62461bcd02815260206004820152601e60248201527f556e697377617056323a204944454e544943414c5f4144445245535345530000604482015290519081900360640190fd5b600080836001600160a01b0316856001600160a01b03161061083957838561083c565b84845b90925090506001600160a01b03821661089f5760408051600160e51b62461bcd02815260206004820152601760248201527f556e697377617056323a205a45524f5f41444452455353000000000000000000604482015290519081900360640190fd5b6001600160a01b0382811660009081526005602090815260408083208585168452909152902054161561091c5760408051600160e51b62461bcd02815260206004820152601660248201527f556e697377617056323a20504149525f45584953545300000000000000000000604482015290519081900360640190fd5b60606040518060200161092e90610ca0565b601f1982820381018352601f9091011660408181526001600160a01b03808716606090811b602085810191909152918716901b6034840152815160288185030181526048909301909152815191810191909120825192935091829184016000f5604080517f89232a000000000000000000000000000000000000000000000000000000000081526001600160a01b0387811660048301528681166024830152601260448301529151929750908716916389232a009160648082019260009290919082900301818387803b158015610a0457600080fd5b505af1158015610a18573d6000803e3d6000fd5b505050506001600160a01b0384811660008181526005602081815260408084208987168086529083528185208054978d166001600160a01b031998891681179091559383528185208686528352818520805488168517905560068054600181018255958190527ff652222313e28459528d920b65115c16c04f3efc82aaedc97be59f3f377c0d3f90950180549097168417909655925483519283529082015281517f0d3648bd0f6ba80134a33ba9275ac585d9d315f0ad8355cddefde31afa28d0e9929181900390910190a35050505092915050565b6000546001600160a01b03163314610b505760408051600160e51b62461bcd02815260206004820152601460248201527f556e697377617056323a20464f5242494444454e000000000000000000000000604482015290519081900360640190fd5b600280546001600160a01b0319166001600160a01b0392909216919091179055565b60056020908152600092835260408084209091529082529020546001600160a01b031681565b6000546001600160a01b03163314610bfa5760408051600160e51b62461bcd02815260206004820152601460248201527f556e697377617056323a20464f5242494444454e000000000000000000000000604482015290519081900360640190fd5b600380546001600160a01b0319166001600160a01b0392909216919091179055565b6000546001600160a01b03163314610c7e5760408051600160e51b62461bcd02815260206004820152601460248201527f556e697377617056323a20464f5242494444454e000000000000000000000000604482015290519081900360640190fd5b600180546001600160a01b0319166001600160a01b0392909216919091179055565b6128ab80610cae8339019056fe60806040526001600c5534801561001557600080fd5b50600580546001600160a01b03191633179055612874806100376000396000f3fe608060405234801561001057600080fd5b506004361061018d5760003560e01c806370a08231116100e3578063ba9a7a561161008c578063d21220a711610066578063d21220a7146104ee578063dd62ed3e146104f6578063fff6cae9146105245761018d565b8063ba9a7a56146104b8578063bc25cf77146104c0578063c45a0155146104e65761018d565b806389afcb44116100bd57806389afcb441461044557806395d89b4114610484578063a9059cbb1461048c5761018d565b806370a08231146103dd5780637464fc3d1461040357806389232a001461040b5761018d565b806318160ddd116101455780635909c0d51161011f5780635909c0d5146103a75780635a3d5493146103af5780636a627842146103b75761018d565b806318160ddd1461033957806323b872dd14610353578063313ce567146103895761018d565b80630902f1ac116101765780630902f1ac1461029d578063095ea7b3146102d55780630dfe1681146103155761018d565b8063022c0d9f1461019257806306fdde0314610220575b600080fd5b61021e600480360360808110156101a857600080fd5b8135916020810135916001600160a01b0360408301351691908101906080810160608201356401000000008111156101df57600080fd5b8201836020820111156101f157600080fd5b8035906020019184600183028401116401000000008311171561021357600080fd5b50909250905061052c565b005b610228610aa4565b6040805160208082528351818301528351919283929083019185019080838360005b8381101561026257818101518382015260200161024a565b50505050905090810190601f16801561028f5780820380516001836020036101000a031916815260200191505b509250505060405180910390f35b6102a5610b32565b604080516001600160701b03948516815292909316602083015263ffffffff168183015290519081900360600190f35b610301600480360360408110156102eb57600080fd5b506001600160a01b038135169060200135610b5c565b604080519115158252519081900360200190f35b61031d610b73565b604080516001600160a01b039092168252519081900360200190f35b610341610b82565b60408051918252519081900360200190f35b6103016004803603606081101561036957600080fd5b506001600160a01b03813581169160208101359091169060400135610b88565b610391610c22565b6040805160ff9092168252519081900360200190f35b610341610c2b565b610341610c31565b610341600480360360208110156103cd57600080fd5b50356001600160a01b0316610c37565b610341600480360360208110156103f357600080fd5b50356001600160a01b031661111d565b61034161112f565b61021e6004803603606081101561042157600080fd5b5080356001600160a01b03908116916020810135909116906040013560ff16611135565b61046b6004803603602081101561045b57600080fd5b50356001600160a01b03166114a9565b6040805192835260208301919091528051918290030190f35b61022861186d565b610301600480360360408110156104a257600080fd5b506001600160a01b0381351690602001356118a6565b6103416118b3565b61021e600480360360208110156104d657600080fd5b50356001600160a01b03166118b9565b61031d611a39565b61031d611a48565b6103416004803603604081101561050c57600080fd5b506001600160a01b0381358116916020013516611a57565b61021e611a74565b600c546001146105865760408051600160e51b62461bcd02815260206004820152601160248201527f556e697377617056323a204c4f434b4544000000000000000000000000000000604482015290519081900360640190fd5b6000600c55841515806105995750600084115b6105d757604051600160e51b62461bcd02815260040180806020018281038252602581526020018061276e6025913960400191505060405180910390fd5b6000806105e2610b32565b5091509150816001600160701b0316871080156106075750806001600160701b031686105b61064557604051600160e51b62461bcd0281526004018080602001828103825260218152602001806127b76021913960400191505060405180910390fd5b60065460075460009182916001600160a01b039182169190811690891682148015906106835750806001600160a01b0316896001600160a01b031614155b6106d75760408051600160e51b62461bcd02815260206004820152601560248201527f556e697377617056323a20494e56414c49445f544f0000000000000000000000604482015290519081900360640190fd5b8a156106e8576106e8828a8d611beb565b89156106f9576106f9818a8c611beb565b86156107b457886001600160a01b03166310d1e85c338d8d8c8c6040518663ffffffff1660e01b815260040180866001600160a01b03166001600160a01b03168152602001858152602001848152602001806020018281038252848482818152602001925080828437600081840152601f19601f8201169050808301925050509650505050505050600060405180830381600087803b15801561079b57600080fd5b505af11580156107af573d6000803e3d6000fd5b505050505b60408051600160e01b6370a0823102815230600482015290516001600160a01b038416916370a08231916024808301926020929190829003018186803b1580156107fd57600080fd5b505afa158015610811573d6000803e3d6000fd5b505050506040513d602081101561082757600080fd5b505160408051600160e01b6370a0823102815230600482015290519195506001600160a01b038316916370a0823191602480820192602092909190829003018186803b15801561087657600080fd5b505afa15801561088a573d6000803e3d6000fd5b505050506040513d60208110156108a057600080fd5b5051925060009150506001600160701b0385168a900383116108c35760006108d2565b89856001600160701b03160383035b9050600089856001600160701b03160383116108ef5760006108fe565b89856001600160701b03160383035b9050600082118061090f5750600081115b61094d57604051600160e51b62461bcd0281526004018080602001828103825260248152602001806127936024913960400191505060405180910390fd5b600061098161096384600363ffffffff611da116565b610975876103e863ffffffff611da116565b9063ffffffff611e0416565b9050600061099961096384600363ffffffff611da116565b90506109ca620f42406109be6001600160701b038b8116908b1663ffffffff611da116565b9063ffffffff611da116565b6109da838363ffffffff611da116565b1015610a305760408051600160e51b62461bcd02815260206004820152600c60248201527f556e697377617056323a204b0000000000000000000000000000000000000000604482015290519081900360640190fd5b5050610a3e84848888611e46565b60408051838152602081018390528082018d9052606081018c905290516001600160a01b038b169133917fd78ad95fa46c994b6551d0da85fc275fe613ce37657fb8d5e3d130840159d8229181900360800190a350506001600c55505050505050505050565b6000805460408051602060026001851615610100026000190190941693909304601f81018490048402820184019092528181529291830182828015610b2a5780601f10610aff57610100808354040283529160200191610b2a565b820191906000526020600020905b815481529060010190602001808311610b0d57829003601f168201915b505050505081565b6008546001600160701b0380821692600160701b830490911691600160e01b900463ffffffff1690565b6000610b69338484612026565b5060015b92915050565b6006546001600160a01b031681565b60025481565b6001600160a01b038316600090815260046020908152604080832033845290915281205460001914610c0d576001600160a01b0384166000908152600460209081526040808320338452909152902054610be8908363ffffffff611e0416565b6001600160a01b03851660009081526004602090815260408083203384529091529020555b610c18848484612088565b5060019392505050565b60015460ff1681565b60095481565b600a5481565b6000600c54600114610c935760408051600160e51b62461bcd02815260206004820152601160248201527f556e697377617056323a204c4f434b4544000000000000000000000000000000604482015290519081900360640190fd5b6000600c81905580610ca3610b32565b5060065460408051600160e01b6370a0823102815230600482015290519395509193506000926001600160a01b03909116916370a08231916024808301926020929190829003018186803b158015610cfa57600080fd5b505afa158015610d0e573d6000803e3d6000fd5b505050506040513d6020811015610d2457600080fd5b505160075460408051600160e01b6370a0823102815230600482015290519293506000926001600160a01b03909216916370a0823191602480820192602092909190829003018186803b158015610d7a57600080fd5b505afa158015610d8e573d6000803e3d6000fd5b505050506040513d6020811015610da457600080fd5b505190506000610dc3836001600160701b03871663ffffffff611e0416565b90506000610de0836001600160701b03871663ffffffff611e0416565b90506000610dee8787612142565b60025490915080610ff957600554604080517f7cd07e4700000000000000000000000000000000000000000000000000000000815290516000926001600160a01b031691637cd07e47916004808301926020929190829003018186803b158015610e5757600080fd5b505afa158015610e6b573d6000803e3d6000fd5b505050506040513d6020811015610e8157600080fd5b50519050336001600160a01b0382161415610f6757806001600160a01b03166340dc0e376040518163ffffffff1660e01b815260040160206040518083038186803b158015610ecf57600080fd5b505afa158015610ee3573d6000803e3d6000fd5b505050506040513d6020811015610ef957600080fd5b505199508915801590610f0e57506000198a14155b610f625760408051600160e51b62461bcd02815260206004820152601560248201527f4261642064657369726564206c69717569646974790000000000000000000000604482015290519081900360640190fd5b610ff3565b6001600160a01b03811615610fc65760408051600160e51b62461bcd02815260206004820152601660248201527f4d757374206e6f742068617665206d69677261746f7200000000000000000000604482015290519081900360640190fd5b610fe46103e8610975610fdf888863ffffffff611da116565b612408565b9950610ff360006103e861245a565b50611048565b6110456001600160701b038916611016868463ffffffff611da116565b8161101d57fe5b046001600160701b038916611038868563ffffffff611da116565b8161103f57fe5b046124f1565b98505b6000891161108a57604051600160e51b62461bcd0281526004018080602001828103825260288152602001806128006028913960400191505060405180910390fd5b6110948a8a61245a565b6110a086868a8a611e46565b81156110d0576008546110cc906001600160701b0380821691600160701b90041663ffffffff611da116565b600b555b6040805185815260208101859052815133927f4c209b5fc8ad50758f13e2e1088ba56a560dff690a1c6fef26394f4c03821c4f928290030190a250506001600c5550949695505050505050565b60036020526000908152604090205481565b600b5481565b6005546001600160a01b031633146111975760408051600160e51b62461bcd02815260206004820152601460248201527f556e697377617056323a20464f5242494444454e000000000000000000000000604482015290519081900360640190fd5b6001805460ff831660ff19909116179055600680546001600160a01b038086167fffffffffffffffffffffffff000000000000000000000000000000000000000092831681179093556007805491861691909216179055604080517f95d89b4100000000000000000000000000000000000000000000000000000000815290516395d89b4191600480820192600092909190829003018186803b15801561123d57600080fd5b505afa158015611251573d6000803e3d6000fd5b505050506040513d6000823e601f3d908101601f19168201604052602081101561127a57600080fd5b81019080805164010000000081111561129257600080fd5b820160208101848111156112a557600080fd5b81516401000000008111828201871017156112bf57600080fd5b5050929190505050826001600160a01b03166395d89b416040518163ffffffff1660e01b815260040160006040518083038186803b15801561130057600080fd5b505afa158015611314573d6000803e3d6000fd5b505050506040513d6000823e601f3d908101601f19168201604052602081101561133d57600080fd5b81019080805164010000000081111561135557600080fd5b8201602081018481111561136857600080fd5b815164010000000081118282018710171561138257600080fd5b505092919050505060405160200180807f436c61696d53776170204c502000000000000000000000000000000000000000815250600d0183805190602001908083835b602083106113e45780518252601f1990920191602091820191016113c5565b6001836020036101000a038019825116818451168082178552505050505050905001807f2d0000000000000000000000000000000000000000000000000000000000000081525060010182805190602001908083835b602083106114595780518252601f19909201916020918201910161143a565b6001836020036101000a03801982511681845116808217855250505050505090500192505050604051602081830303815290604052600090805190602001906114a39291906126d2565b50505050565b600080600c546001146115065760408051600160e51b62461bcd02815260206004820152601160248201527f556e697377617056323a204c4f434b4544000000000000000000000000000000604482015290519081900360640190fd5b6000600c81905580611516610b32565b5060065460075460408051600160e01b6370a0823102815230600482015290519496509294506001600160a01b039182169391169160009184916370a08231916024808301926020929190829003018186803b15801561157557600080fd5b505afa158015611589573d6000803e3d6000fd5b505050506040513d602081101561159f57600080fd5b505160408051600160e01b6370a0823102815230600482015290519192506000916001600160a01b038516916370a08231916024808301926020929190829003018186803b1580156115f057600080fd5b505afa158015611604573d6000803e3d6000fd5b505050506040513d602081101561161a57600080fd5b5051306000908152600360205260408120549192506116398888612142565b60025490915080611650848763ffffffff611da116565b8161165757fe5b049a508061166b848663ffffffff611da116565b8161167257fe5b04995060008b118015611685575060008a115b6116c357604051600160e51b62461bcd0281526004018080602001828103825260288152602001806127d86028913960400191505060405180910390fd5b6116cd3084612507565b6116d8878d8d611beb565b6116e3868d8c611beb565b60408051600160e01b6370a0823102815230600482015290516001600160a01b038916916370a08231916024808301926020929190829003018186803b15801561172c57600080fd5b505afa158015611740573d6000803e3d6000fd5b505050506040513d602081101561175657600080fd5b505160408051600160e01b6370a0823102815230600482015290519196506001600160a01b038816916370a0823191602480820192602092909190829003018186803b1580156117a557600080fd5b505afa1580156117b9573d6000803e3d6000fd5b505050506040513d60208110156117cf57600080fd5b505193506117df85858b8b611e46565b811561180f5760085461180b906001600160701b0380821691600160701b90041663ffffffff611da116565b600b555b604080518c8152602081018c905281516001600160a01b038f169233927fdccd412f0b1252819cb1fd330b93224ca42612892bb3f4f789976e6d81936496929081900390910190a35050505050505050506001600c81905550915091565b6040518060400160405280600681526020017f434c412d4c50000000000000000000000000000000000000000000000000000081525081565b6000610b69338484612088565b6103e881565b600c546001146119135760408051600160e51b62461bcd02815260206004820152601160248201527f556e697377617056323a204c4f434b4544000000000000000000000000000000604482015290519081900360640190fd5b6000600c5560065460075460085460408051600160e01b6370a0823102815230600482015290516001600160a01b0394851694909316926119c592859287926119c0926001600160701b03169185916370a0823191602480820192602092909190829003018186803b15801561198857600080fd5b505afa15801561199c573d6000803e3d6000fd5b505050506040513d60208110156119b257600080fd5b50519063ffffffff611e0416565b611beb565b60085460408051600160e01b6370a082310281523060048201529051611a2f92849287926119c092600160701b90046001600160701b0316916001600160a01b038616916370a0823191602480820192602092909190829003018186803b15801561198857600080fd5b50506001600c5550565b6005546001600160a01b031681565b6007546001600160a01b031681565b600460209081526000928352604080842090915290825290205481565b600c54600114611ace5760408051600160e51b62461bcd02815260206004820152601160248201527f556e697377617056323a204c4f434b4544000000000000000000000000000000604482015290519081900360640190fd5b6000600c5560065460408051600160e01b6370a082310281523060048201529051611be4926001600160a01b0316916370a08231916024808301926020929190829003018186803b158015611b2257600080fd5b505afa158015611b36573d6000803e3d6000fd5b505050506040513d6020811015611b4c57600080fd5b505160075460408051600160e01b6370a0823102815230600482015290516001600160a01b03909216916370a0823191602480820192602092909190829003018186803b158015611b9c57600080fd5b505afa158015611bb0573d6000803e3d6000fd5b505050506040513d6020811015611bc657600080fd5b50516008546001600160701b0380821691600160701b900416611e46565b6001600c55565b604080518082018252601981527f7472616e7366657228616464726573732c75696e74323536290000000000000060209182015281516001600160a01b0385811660248301526044808301869052845180840390910181526064909201845291810180516001600160e01b03167fa9059cbb000000000000000000000000000000000000000000000000000000001781529251815160009460609489169392918291908083835b60208310611cb15780518252601f199092019160209182019101611c92565b6001836020036101000a0380198251168184511680821785525050505050509050019150506000604051808303816000865af19150503d8060008114611d13576040519150601f19603f3d011682016040523d82523d6000602084013e611d18565b606091505b5091509150818015611d46575080511580611d465750808060200190516020811015611d4357600080fd5b50515b611d9a5760408051600160e51b62461bcd02815260206004820152601a60248201527f556e697377617056323a205452414e534645525f4641494c4544000000000000604482015290519081900360640190fd5b5050505050565b600082611db057506000610b6d565b82820282848281611dbd57fe5b0414611dfd57604051600160e51b62461bcd0281526004018080602001828103825260218152602001806128286021913960400191505060405180910390fd5b9392505050565b6000611dfd83836040518060400160405280601e81526020017f536166654d6174683a207375627472616374696f6e206f766572666c6f7700008152506125a4565b6001600160701b038411801590611e6457506001600160701b038311155b611eb85760408051600160e51b62461bcd02815260206004820152601360248201527f556e697377617056323a204f564552464c4f5700000000000000000000000000604482015290519081900360640190fd5b60085463ffffffff42811691600160e01b90048116820390811615801590611ee857506001600160701b03841615155b8015611efc57506001600160701b03831615155b15611f6d578063ffffffff16611f2a85611f158661263e565b6001600160e01b03169063ffffffff61265016565b600980546001600160e01b03929092169290920201905563ffffffff8116611f5584611f158761263e565b600a80546001600160e01b0392909216929092020190555b600880546dffffffffffffffffffffffffffff19166001600160701b03888116919091177fffffffff0000000000000000000000000000ffffffffffffffffffffffffffff16600160701b8883168102919091176001600160e01b0316600160e01b63ffffffff871602179283905560408051848416815291909304909116602082015281517f1c411e9a96e071241c2f21f7726b17ae89e3cab4c78be50e062b03a9fffbbad1929181900390910190a1505050505050565b6001600160a01b03808416600081815260046020908152604080832094871680845294825291829020859055815185815291517f8c5be1e5ebec7d5bd14f71427d1e84f3dd0314c0f7b2291e5b200ac8c7c3b9259281900390910190a3505050565b6001600160a01b0383166000908152600360205260409020546120b1908263ffffffff611e0416565b6001600160a01b0380851660009081526003602052604080822093909355908416815220546120e6908263ffffffff61267516565b6001600160a01b0380841660008181526003602090815260409182902094909455805185815290519193928716927fddf252ad1be2c89b69c2b068fc378daa952ba7f163c4a11628f55a4df523b3ef92918290030190a3505050565b600080600560009054906101000a90046001600160a01b03166001600160a01b031663017e7e586040518163ffffffff1660e01b815260040160206040518083038186803b15801561219357600080fd5b505afa1580156121a7573d6000803e3d6000fd5b505050506040513d60208110156121bd57600080fd5b5051600554604080517f0d43e8ad00000000000000000000000000000000000000000000000000000000815290519293506000926001600160a01b0390921691630d43e8ad91600480820192602092909190829003018186803b15801561222357600080fd5b505afa158015612237573d6000803e3d6000fd5b505050506040513d602081101561224d57600080fd5b5051600554604080517f672a9f8d00000000000000000000000000000000000000000000000000000000815290519293506000926001600160a01b039092169163672a9f8d91600480820192602092909190829003018186803b1580156122b357600080fd5b505afa1580156122c7573d6000803e3d6000fd5b505050506040513d60208110156122dd57600080fd5b505190506001600160a01b0383161580159061230157506001600160a01b03821615155b801561231557506001600160a01b03811615155b600b5490945084156123f25780156123ed576000612348610fdf6001600160701b038a8116908a1663ffffffff611da116565b9050600061235583612408565b9050808211156123ea576000612383612374848463ffffffff611e0416565b6002549063ffffffff611da116565b90506000612397848463ffffffff61267516565b905060008183816123a457fe5b04905080156123e657600681048060006123c2826109758682611e04565b90506123ce8c8461245a565b6123d88a8361245a565b6123e28b8261245a565b5050505b5050505b50505b6123fe565b80156123fe576000600b555b5050505092915050565b6000600382111561244b575080600160028204015b818110156124455780915060028182858161243457fe5b04018161243d57fe5b04905061241d565b50612455565b8115612455575060015b919050565b60025461246d908263ffffffff61267516565b6002556001600160a01b038216600090815260036020526040902054612499908263ffffffff61267516565b6001600160a01b03831660008181526003602090815260408083209490945583518581529351929391927fddf252ad1be2c89b69c2b068fc378daa952ba7f163c4a11628f55a4df523b3ef9281900390910190a35050565b60008183106125005781611dfd565b5090919050565b6001600160a01b038216600090815260036020526040902054612530908263ffffffff611e0416565b6001600160a01b03831660009081526003602052604090205560025461255c908263ffffffff611e0416565b6002556040805182815290516000916001600160a01b038516917fddf252ad1be2c89b69c2b068fc378daa952ba7f163c4a11628f55a4df523b3ef9181900360200190a35050565b6000818484111561263657604051600160e51b62461bcd0281526004018080602001828103825283818151815260200191508051906020019080838360005b838110156125fb5781810151838201526020016125e3565b50505050905090810190601f1680156126285780820380516001836020036101000a031916815260200191505b509250505060405180910390fd5b505050900390565b6001600160701b0316600160701b0290565b60006001600160701b0382166001600160e01b0384168161266d57fe5b049392505050565b600082820183811015611dfd5760408051600160e51b62461bcd02815260206004820152601b60248201527f536166654d6174683a206164646974696f6e206f766572666c6f770000000000604482015290519081900360640190fd5b828054600181600116156101000203166002900490600052602060002090601f016020900481019282601f1061271357805160ff1916838001178555612740565b82800160010185558215612740579182015b82811115612740578251825591602001919060010190612725565b5061274c929150612750565b5090565b61276a91905b8082111561274c5760008155600101612756565b9056fe556e697377617056323a20494e53554646494349454e545f4f55545055545f414d4f554e54556e697377617056323a20494e53554646494349454e545f494e5055545f414d4f554e54556e697377617056323a20494e53554646494349454e545f4c4951554944495459556e697377617056323a20494e53554646494349454e545f4c49515549444954595f4255524e4544556e697377617056323a20494e53554646494349454e545f4c49515549444954595f4d494e544544536166654d6174683a206d756c7469706c69636174696f6e206f766572666c6f77a165627a7a7230582054e1bed76916c997cf068bebd5f7845c7ca5984d0d4e14db172b41025c8bbb6b0029a165627a7a72305820b96e6a55d9fafc964dbbd4925ddbb0382e0ecd32e005c3298aff097c4716926f0029",
  "devdoc": {
    "methods": {}
  },
  "userdoc": {
    "methods": {
      "createPair(address,address)": {
        "notice": "create pair with default decimals(18)"
      },
      "createPair(address,address,uint8)": {
        "notice": "create pair with custom decimals. Can only be called by migrator"
      }
    }
  }
}